{
  "contracts/RubyPool.sol": {
    "RubyPool": {
      "abi": [
        {
          "inputs": [
            {
              "internalType": "address",
              "name": "_token0addr",
              "type": "address"
            },
            {
              "internalType": "address",
              "name": "_token1addr",
              "type": "address"
            }
          ],
          "stateMutability": "nonpayable",
          "type": "constructor"
        },
        {
          "anonymous": false,
          "inputs": [
            {
              "indexed": false,
              "internalType": "uint256",
              "name": "amount",
              "type": "uint256"
            },
            {
              "indexed": false,
              "internalType": "string",
              "name": "token",
              "type": "string"
            }
          ],
          "name": "stakeAdded",
          "type": "event"
        },
        {
          "anonymous": false,
          "inputs": [
            {
              "indexed": false,
              "internalType": "uint256",
              "name": "amount",
              "type": "uint256"
            },
            {
              "indexed": false,
              "internalType": "string",
              "name": "token",
              "type": "string"
            }
          ],
          "name": "stakeRemoved",
          "type": "event"
        },
        {
          "anonymous": false,
          "inputs": [
            {
              "indexed": false,
              "internalType": "uint256",
              "name": "amountIn",
              "type": "uint256"
            },
            {
              "indexed": false,
              "internalType": "uint256",
              "name": "amountOut",
              "type": "uint256"
            },
            {
              "indexed": false,
              "internalType": "string",
              "name": "tokenIn",
              "type": "string"
            },
            {
              "indexed": false,
              "internalType": "string",
              "name": "tokenOut",
              "type": "string"
            }
          ],
          "name": "swap",
          "type": "event"
        },
        {
          "inputs": [
            {
              "internalType": "uint256",
              "name": "_amount",
              "type": "uint256"
            }
          ],
          "name": "addStake0",
          "outputs": [],
          "stateMutability": "nonpayable",
          "type": "function"
        },
        {
          "inputs": [
            {
              "internalType": "uint256",
              "name": "_amount",
              "type": "uint256"
            }
          ],
          "name": "addStake1",
          "outputs": [],
          "stateMutability": "nonpayable",
          "type": "function"
        },
        {
          "inputs": [],
          "name": "deleteZeroStakers",
          "outputs": [],
          "stateMutability": "nonpayable",
          "type": "function"
        },
        {
          "inputs": [
            {
              "internalType": "uint256",
              "name": "_amount",
              "type": "uint256"
            }
          ],
          "name": "exchange0to1",
          "outputs": [],
          "stateMutability": "nonpayable",
          "type": "function"
        },
        {
          "inputs": [
            {
              "internalType": "uint256",
              "name": "_amount",
              "type": "uint256"
            }
          ],
          "name": "exchange1to0",
          "outputs": [],
          "stateMutability": "nonpayable",
          "type": "function"
        },
        {
          "inputs": [],
          "name": "getToken0pool",
          "outputs": [
            {
              "internalType": "uint256",
              "name": "",
              "type": "uint256"
            }
          ],
          "stateMutability": "view",
          "type": "function"
        },
        {
          "inputs": [],
          "name": "getToken1pool",
          "outputs": [
            {
              "internalType": "uint256",
              "name": "",
              "type": "uint256"
            }
          ],
          "stateMutability": "view",
          "type": "function"
        },
        {
          "inputs": [],
          "name": "owner",
          "outputs": [
            {
              "internalType": "address",
              "name": "",
              "type": "address"
            }
          ],
          "stateMutability": "view",
          "type": "function"
        },
        {
          "inputs": [],
          "name": "pool0",
          "outputs": [
            {
              "internalType": "uint256",
              "name": "",
              "type": "uint256"
            }
          ],
          "stateMutability": "view",
          "type": "function"
        },
        {
          "inputs": [],
          "name": "pool1",
          "outputs": [
            {
              "internalType": "uint256",
              "name": "",
              "type": "uint256"
            }
          ],
          "stateMutability": "view",
          "type": "function"
        },
        {
          "inputs": [
            {
              "internalType": "address",
              "name": "",
              "type": "address"
            }
          ],
          "name": "prize0",
          "outputs": [
            {
              "internalType": "uint256",
              "name": "",
              "type": "uint256"
            }
          ],
          "stateMutability": "view",
          "type": "function"
        },
        {
          "inputs": [
            {
              "internalType": "address",
              "name": "",
              "type": "address"
            }
          ],
          "name": "prize1",
          "outputs": [
            {
              "internalType": "uint256",
              "name": "",
              "type": "uint256"
            }
          ],
          "stateMutability": "view",
          "type": "function"
        },
        {
          "inputs": [
            {
              "internalType": "uint256",
              "name": "_amount",
              "type": "uint256"
            }
          ],
          "name": "removeStake0",
          "outputs": [],
          "stateMutability": "nonpayable",
          "type": "function"
        },
        {
          "inputs": [
            {
              "internalType": "uint256",
              "name": "_amount",
              "type": "uint256"
            }
          ],
          "name": "removeStake1",
          "outputs": [],
          "stateMutability": "nonpayable",
          "type": "function"
        },
        {
          "inputs": [
            {
              "internalType": "address",
              "name": "",
              "type": "address"
            }
          ],
          "name": "stake0",
          "outputs": [
            {
              "internalType": "uint256",
              "name": "",
              "type": "uint256"
            }
          ],
          "stateMutability": "view",
          "type": "function"
        },
        {
          "inputs": [
            {
              "internalType": "address",
              "name": "",
              "type": "address"
            }
          ],
          "name": "stake1",
          "outputs": [
            {
              "internalType": "uint256",
              "name": "",
              "type": "uint256"
            }
          ],
          "stateMutability": "view",
          "type": "function"
        },
        {
          "inputs": [
            {
              "internalType": "uint256",
              "name": "",
              "type": "uint256"
            }
          ],
          "name": "staker0",
          "outputs": [
            {
              "internalType": "address",
              "name": "",
              "type": "address"
            }
          ],
          "stateMutability": "view",
          "type": "function"
        },
        {
          "inputs": [
            {
              "internalType": "uint256",
              "name": "",
              "type": "uint256"
            }
          ],
          "name": "staker1",
          "outputs": [
            {
              "internalType": "address",
              "name": "",
              "type": "address"
            }
          ],
          "stateMutability": "view",
          "type": "function"
        },
        {
          "inputs": [],
          "name": "token0",
          "outputs": [
            {
              "internalType": "contract ERC20",
              "name": "",
              "type": "address"
            }
          ],
          "stateMutability": "view",
          "type": "function"
        },
        {
          "inputs": [],
          "name": "token1",
          "outputs": [
            {
              "internalType": "contract ERC20",
              "name": "",
              "type": "address"
            }
          ],
          "stateMutability": "view",
          "type": "function"
        },
        {
          "inputs": [],
          "name": "withdrawPrize0",
          "outputs": [],
          "stateMutability": "nonpayable",
          "type": "function"
        },
        {
          "inputs": [],
          "name": "withdrawPrize1",
          "outputs": [],
          "stateMutability": "nonpayable",
          "type": "function"
        }
      ],
      "evm": {
        "bytecode": {
          "linkReferences": {},
          "object": "60e06040523480156200001157600080fd5b50604051620035a9380380620035a9833981810160405281019062000037919062000154565b8173ffffffffffffffffffffffffffffffffffffffff1660808173ffffffffffffffffffffffffffffffffffffffff16815250508073ffffffffffffffffffffffffffffffffffffffff1660a08173ffffffffffffffffffffffffffffffffffffffff16815250506000808190555060006001819055503373ffffffffffffffffffffffffffffffffffffffff1660c08173ffffffffffffffffffffffffffffffffffffffff168152505050506200019b565b600080fd5b600073ffffffffffffffffffffffffffffffffffffffff82169050919050565b60006200011c82620000ef565b9050919050565b6200012e816200010f565b81146200013a57600080fd5b50565b6000815190506200014e8162000123565b92915050565b600080604083850312156200016e576200016d620000ea565b5b60006200017e858286016200013d565b925050602062000191858286016200013d565b9150509250929050565b60805160a05160c0516132f7620002b2600039600081816104000152612004015260008181610716015281816107b2015281816108cc0152818161099601528181610a4b01528181610b6b01528181610c0701528181610d8601528181610e50015281816110750152818161116f015281816112e6015281816114520152818161195e01528181611abd01528181611b710152612520015260008181610efe01528181611387015281816114e6015281816116a301528181611746015281816118bd01528181611a2901528181611cd701528181611d7301528181611e8c01528181611f56015281816120680152818161218801528181612224015281816123a20152818161246c015261254601526132f76000f3fe608060405234801561001057600080fd5b50600436106101415760003560e01c80635b1f8e0d116100b85780638da5cb5b1161007c5780638da5cb5b1461033a578063a1f73f9c14610358578063ba0af51014610388578063c81533a4146103a4578063d21220a7146103c2578063f9d5263f146103e057610141565b80635b1f8e0d146102be5780635d862828146102da57806361b723cf146102e4578063691eed5614610300578063791441291461031e57610141565b806314ca9c391161010a57806314ca9c39146101c4578063367e6e8a146101f45780633a1f52281461022457806343817180146102545780634526d37d1461025e5780634d3ed3d31461028e57610141565b80620f05731461014657806301afe5fa1461015057806305ea3ed51461016c578063073dbfc41461018a5780630dfe1681146101a6575b600080fd5b61014e6103fe565b005b61016a600480360381019061016591906128d9565b61064d565b005b610174610a42565b6040516101819190612915565b60405180910390f35b6101a4600480360381019061019f91906128d9565b610a48565b005b6101ae610efc565b6040516101bb91906129af565b60405180910390f35b6101de60048036038101906101d99190612a08565b610f20565b6040516101eb9190612915565b60405180910390f35b61020e60048036038101906102099190612a08565b610f38565b60405161021b9190612915565b60405180910390f35b61023e60048036038101906102399190612a08565b610f50565b60405161024b9190612915565b60405180910390f35b61025c610f68565b005b61027860048036038101906102739190612a08565b611115565b6040516102859190612915565b60405180910390f35b6102a860048036038101906102a391906128d9565b61112d565b6040516102b59190612a44565b60405180910390f35b6102d860048036038101906102d391906128d9565b61116c565b005b6102e2611596565b005b6102fe60048036038101906102f991906128d9565b611743565b005b610308611b6d565b6040516103159190612915565b60405180910390f35b610338600480360381019061033391906128d9565b611c0e565b005b610342612002565b60405161034f9190612a44565b60405180910390f35b610372600480360381019061036d91906128d9565b612026565b60405161037f9190612a44565b60405180910390f35b6103a2600480360381019061039d91906128d9565b612065565b005b6103ac612518565b6040516103b99190612915565b60405180910390f35b6103ca61251e565b6040516103d791906129af565b60405180910390f35b6103e8612542565b6040516103f59190612915565b60405180910390f35b7f000000000000000000000000000000000000000000000000000000000000000073ffffffffffffffffffffffffffffffffffffffff163373ffffffffffffffffffffffffffffffffffffffff161461048c576040517f08c379a000000000000000000000000000000000000000000000000000000000815260040161048390612abc565b60405180910390fd5b60005b60048054905081101561064a57600060026000600484815481106104b6576104b5612adc565b5b9060005260206000200160009054906101000a900473ffffffffffffffffffffffffffffffffffffffff1673ffffffffffffffffffffffffffffffffffffffff1673ffffffffffffffffffffffffffffffffffffffff16815260200190815260200160002054036106375760008190505b6004805490508110156105ee5760046001826105439190612b3a565b8154811061055457610553612adc565b5b9060005260206000200160009054906101000a900473ffffffffffffffffffffffffffffffffffffffff166004828154811061059357610592612adc565b5b9060005260206000200160006101000a81548173ffffffffffffffffffffffffffffffffffffffff021916908373ffffffffffffffffffffffffffffffffffffffff16021790555080806105e690612b90565b915050610527565b50600480548061060157610600612bd8565b5b6001900381819060005260206000200160006101000a81549073ffffffffffffffffffffffffffffffffffffffff021916905590555b808061064290612b90565b91505061048f565b50565b80600360003373ffffffffffffffffffffffffffffffffffffffff1673ffffffffffffffffffffffffffffffffffffffff1681526020019081526020016000205410156106cf576040517f08c379a00000000000000000000000000000000000000000000000000000000081526004016106c690612c53565b60405180910390fd5b60008111610712576040517f08c379a000000000000000000000000000000000000000000000000000000000815260040161070990612cbf565b60405180910390fd5b60007f000000000000000000000000000000000000000000000000000000000000000073ffffffffffffffffffffffffffffffffffffffff166370a08231306040518263ffffffff1660e01b815260040161076d9190612a44565b602060405180830381865afa15801561078a573d6000803e3d6000fd5b505050506040513d601f19601f820116820180604052508101906107ae9190612cf4565b90507f000000000000000000000000000000000000000000000000000000000000000073ffffffffffffffffffffffffffffffffffffffff1663a9059cbb33846040518363ffffffff1660e01b815260040161080b929190612d21565b6020604051808303816000875af115801561082a573d6000803e3d6000fd5b505050506040513d601f19601f8201168201806040525081019061084e9190612d82565b5081600160008282546108619190612daf565b9250508190555081600360003373ffffffffffffffffffffffffffffffffffffffff1673ffffffffffffffffffffffffffffffffffffffff16815260200190815260200160002060008282546108b79190612daf565b9250508190555081816108ca9190612daf565b7f000000000000000000000000000000000000000000000000000000000000000073ffffffffffffffffffffffffffffffffffffffff166370a08231306040518263ffffffff1660e01b81526004016109239190612a44565b602060405180830381865afa158015610940573d6000803e3d6000fd5b505050506040513d601f19601f820116820180604052508101906109649190612cf4565b1461097257610971612de3565b5b7fb659d979a9eebbdf7d424dfa6aabda43bdedf0134d00557d804f960517b08572827f000000000000000000000000000000000000000000000000000000000000000073ffffffffffffffffffffffffffffffffffffffff166306fdde036040518163ffffffff1660e01b8152600401600060405180830381865afa1580156109ff573d6000803e3d6000fd5b505050506040513d6000823e3d601f19601f82011682018060405250810190610a289190612f7c565b604051610a36929190613009565b60405180910390a15050565b60015481565b807f000000000000000000000000000000000000000000000000000000000000000073ffffffffffffffffffffffffffffffffffffffff166370a08231336040518263ffffffff1660e01b8152600401610aa29190612a44565b602060405180830381865afa158015610abf573d6000803e3d6000fd5b505050506040513d601f19601f82011682018060405250810190610ae39190612cf4565b1015610b24576040517f08c379a0000000000000000000000000000000000000000000000000000000008152600401610b1b90613085565b60405180910390fd5b60008111610b67576040517f08c379a0000000000000000000000000000000000000000000000000000000008152600401610b5e906130f1565b60405180910390fd5b60007f000000000000000000000000000000000000000000000000000000000000000073ffffffffffffffffffffffffffffffffffffffff166370a08231306040518263ffffffff1660e01b8152600401610bc29190612a44565b602060405180830381865afa158015610bdf573d6000803e3d6000fd5b505050506040513d601f19601f82011682018060405250810190610c039190612cf4565b90507f000000000000000000000000000000000000000000000000000000000000000073ffffffffffffffffffffffffffffffffffffffff166323b872dd3330856040518463ffffffff1660e01b8152600401610c6293929190613111565b6020604051808303816000875af1158015610c81573d6000803e3d6000fd5b505050506040513d601f19601f82011682018060405250810190610ca59190612d82565b508160016000828254610cb89190612b3a565b9250508190555081600360003373ffffffffffffffffffffffffffffffffffffffff1673ffffffffffffffffffffffffffffffffffffffff1681526020019081526020016000206000828254610d0e9190612b3a565b925050819055506005339080600181540180825580915050600190039060005260206000200160009091909190916101000a81548173ffffffffffffffffffffffffffffffffffffffff021916908373ffffffffffffffffffffffffffffffffffffffff1602179055508181610d849190612b3a565b7f000000000000000000000000000000000000000000000000000000000000000073ffffffffffffffffffffffffffffffffffffffff166370a08231306040518263ffffffff1660e01b8152600401610ddd9190612a44565b602060405180830381865afa158015610dfa573d6000803e3d6000fd5b505050506040513d601f19601f82011682018060405250810190610e1e9190612cf4565b14610e2c57610e2b612de3565b5b7f2a89a9867ba3f0bd8d280793be9bc1d599e2063cf3e4dd8e7a321d907047982c827f000000000000000000000000000000000000000000000000000000000000000073ffffffffffffffffffffffffffffffffffffffff166306fdde036040518163ffffffff1660e01b8152600401600060405180830381865afa158015610eb9573d6000803e3d6000fd5b505050506040513d6000823e3d601f19601f82011682018060405250810190610ee29190612f7c565b604051610ef0929190613009565b60405180910390a15050565b7f000000000000000000000000000000000000000000000000000000000000000081565b60066020528060005260406000206000915090505481565b60026020528060005260406000206000915090505481565b60036020528060005260406000206000915090505481565b6000600760003373ffffffffffffffffffffffffffffffffffffffff1673ffffffffffffffffffffffffffffffffffffffff1681526020019081526020016000205411610fea576040517f08c379a0000000000000000000000000000000000000000000000000000000008152600401610fe190613194565b60405180910390fd5b6000600760003373ffffffffffffffffffffffffffffffffffffffff1673ffffffffffffffffffffffffffffffffffffffff1681526020019081526020016000205490506000600760003373ffffffffffffffffffffffffffffffffffffffff1673ffffffffffffffffffffffffffffffffffffffff168152602001908152602001600020819055507f000000000000000000000000000000000000000000000000000000000000000073ffffffffffffffffffffffffffffffffffffffff1663a9059cbb33836040518363ffffffff1660e01b81526004016110ce929190612d21565b6020604051808303816000875af11580156110ed573d6000803e3d6000fd5b505050506040513d601f19601f820116820180604052508101906111119190612d82565b5050565b60076020528060005260406000206000915090505481565b6004818154811061113d57600080fd5b906000526020600020016000915054906101000a900473ffffffffffffffffffffffffffffffffffffffff1681565b807f000000000000000000000000000000000000000000000000000000000000000073ffffffffffffffffffffffffffffffffffffffff166370a08231336040518263ffffffff1660e01b81526004016111c69190612a44565b602060405180830381865afa1580156111e3573d6000803e3d6000fd5b505050506040513d601f19601f820116820180604052508101906112079190612cf4565b1015611248576040517f08c379a000000000000000000000000000000000000000000000000000000000815260040161123f90613085565b60405180910390fd5b6000811161128b576040517f08c379a0000000000000000000000000000000000000000000000000000000008152600401611282906130f1565b60405180910390fd5b60006103e86103e68361129e91906131b4565b6112a8919061323d565b9050600081836112b89190612daf565b90506000826001546112ca9190612b3a565b836000546112d891906131b4565b6112e2919061323d565b90507f000000000000000000000000000000000000000000000000000000000000000073ffffffffffffffffffffffffffffffffffffffff166323b872dd3330876040518463ffffffff1660e01b815260040161134193929190613111565b6020604051808303816000875af1158015611360573d6000803e3d6000fd5b505050506040513d601f19601f820116820180604052508101906113849190612d82565b507f000000000000000000000000000000000000000000000000000000000000000073ffffffffffffffffffffffffffffffffffffffff1663a9059cbb33836040518363ffffffff1660e01b81526004016113e0929190612d21565b6020604051808303816000875af11580156113ff573d6000803e3d6000fd5b505050506040513d601f19601f820116820180604052508101906114239190612d82565b5061142d826125e3565b7fc92e7e3e70b6a315e0fe9b16a23e8b359512423950d2748333641a9d5dcfa09584827f000000000000000000000000000000000000000000000000000000000000000073ffffffffffffffffffffffffffffffffffffffff166306fdde036040518163ffffffff1660e01b8152600401600060405180830381865afa1580156114bb573d6000803e3d6000fd5b505050506040513d6000823e3d601f19601f820116820180604052508101906114e49190612f7c565b7f000000000000000000000000000000000000000000000000000000000000000073ffffffffffffffffffffffffffffffffffffffff166306fdde036040518163ffffffff1660e01b8152600401600060405180830381865afa15801561154f573d6000803e3d6000fd5b505050506040513d6000823e3d601f19601f820116820180604052508101906115789190612f7c565b604051611588949392919061326e565b60405180910390a150505050565b6000600660003373ffffffffffffffffffffffffffffffffffffffff1673ffffffffffffffffffffffffffffffffffffffff1681526020019081526020016000205411611618576040517f08c379a000000000000000000000000000000000000000000000000000000000815260040161160f90613194565b60405180910390fd5b6000600660003373ffffffffffffffffffffffffffffffffffffffff1673ffffffffffffffffffffffffffffffffffffffff1681526020019081526020016000205490506000600660003373ffffffffffffffffffffffffffffffffffffffff1673ffffffffffffffffffffffffffffffffffffffff168152602001908152602001600020819055507f000000000000000000000000000000000000000000000000000000000000000073ffffffffffffffffffffffffffffffffffffffff1663a9059cbb33836040518363ffffffff1660e01b81526004016116fc929190612d21565b6020604051808303816000875af115801561171b573d6000803e3d6000fd5b505050506040513d601f19601f8201168201806040525081019061173f9190612d82565b5050565b807f000000000000000000000000000000000000000000000000000000000000000073ffffffffffffffffffffffffffffffffffffffff166370a08231336040518263ffffffff1660e01b815260040161179d9190612a44565b602060405180830381865afa1580156117ba573d6000803e3d6000fd5b505050506040513d601f19601f820116820180604052508101906117de9190612cf4565b101561181f576040517f08c379a000000000000000000000000000000000000000000000000000000000815260040161181690613085565b60405180910390fd5b60008111611862576040517f08c379a0000000000000000000000000000000000000000000000000000000008152600401611859906130f1565b60405180910390fd5b60006103e86103e68361187591906131b4565b61187f919061323d565b90506000818361188f9190612daf565b90506000826000546118a19190612b3a565b836001546118af91906131b4565b6118b9919061323d565b90507f000000000000000000000000000000000000000000000000000000000000000073ffffffffffffffffffffffffffffffffffffffff166323b872dd3330876040518463ffffffff1660e01b815260040161191893929190613111565b6020604051808303816000875af1158015611937573d6000803e3d6000fd5b505050506040513d601f19601f8201168201806040525081019061195b9190612d82565b507f000000000000000000000000000000000000000000000000000000000000000073ffffffffffffffffffffffffffffffffffffffff1663a9059cbb33836040518363ffffffff1660e01b81526004016119b7929190612d21565b6020604051808303816000875af11580156119d6573d6000803e3d6000fd5b505050506040513d601f19601f820116820180604052508101906119fa9190612d82565b50611a0482612739565b7fc92e7e3e70b6a315e0fe9b16a23e8b359512423950d2748333641a9d5dcfa09584827f000000000000000000000000000000000000000000000000000000000000000073ffffffffffffffffffffffffffffffffffffffff166306fdde036040518163ffffffff1660e01b8152600401600060405180830381865afa158015611a92573d6000803e3d6000fd5b505050506040513d6000823e3d601f19601f82011682018060405250810190611abb9190612f7c565b7f000000000000000000000000000000000000000000000000000000000000000073ffffffffffffffffffffffffffffffffffffffff166306fdde036040518163ffffffff1660e01b8152600401600060405180830381865afa158015611b26573d6000803e3d6000fd5b505050506040513d6000823e3d601f19601f82011682018060405250810190611b4f9190612f7c565b604051611b5f949392919061326e565b60405180910390a150505050565b60007f000000000000000000000000000000000000000000000000000000000000000073ffffffffffffffffffffffffffffffffffffffff166370a08231306040518263ffffffff1660e01b8152600401611bc89190612a44565b602060405180830381865afa158015611be5573d6000803e3d6000fd5b505050506040513d601f19601f82011682018060405250810190611c099190612cf4565b905090565b80600260003373ffffffffffffffffffffffffffffffffffffffff1673ffffffffffffffffffffffffffffffffffffffff168152602001908152602001600020541015611c90576040517f08c379a0000000000000000000000000000000000000000000000000000000008152600401611c8790612c53565b60405180910390fd5b60008111611cd3576040517f08c379a0000000000000000000000000000000000000000000000000000000008152600401611cca90612cbf565b60405180910390fd5b60007f000000000000000000000000000000000000000000000000000000000000000073ffffffffffffffffffffffffffffffffffffffff166370a08231306040518263ffffffff1660e01b8152600401611d2e9190612a44565b602060405180830381865afa158015611d4b573d6000803e3d6000fd5b505050506040513d601f19601f82011682018060405250810190611d6f9190612cf4565b90507f000000000000000000000000000000000000000000000000000000000000000073ffffffffffffffffffffffffffffffffffffffff1663a9059cbb33846040518363ffffffff1660e01b8152600401611dcc929190612d21565b6020604051808303816000875af1158015611deb573d6000803e3d6000fd5b505050506040513d601f19601f82011682018060405250810190611e0f9190612d82565b5081600080828254611e219190612daf565b9250508190555081600260003373ffffffffffffffffffffffffffffffffffffffff1673ffffffffffffffffffffffffffffffffffffffff1681526020019081526020016000206000828254611e779190612daf565b925050819055508181611e8a9190612daf565b7f000000000000000000000000000000000000000000000000000000000000000073ffffffffffffffffffffffffffffffffffffffff166370a08231306040518263ffffffff1660e01b8152600401611ee39190612a44565b602060405180830381865afa158015611f00573d6000803e3d6000fd5b505050506040513d601f19601f82011682018060405250810190611f249190612cf4565b14611f3257611f31612de3565b5b7fb659d979a9eebbdf7d424dfa6aabda43bdedf0134d00557d804f960517b08572827f000000000000000000000000000000000000000000000000000000000000000073ffffffffffffffffffffffffffffffffffffffff166306fdde036040518163ffffffff1660e01b8152600401600060405180830381865afa158015611fbf573d6000803e3d6000fd5b505050506040513d6000823e3d601f19601f82011682018060405250810190611fe89190612f7c565b604051611ff6929190613009565b60405180910390a15050565b7f000000000000000000000000000000000000000000000000000000000000000081565b6005818154811061203657600080fd5b906000526020600020016000915054906101000a900473ffffffffffffffffffffffffffffffffffffffff1681565b807f000000000000000000000000000000000000000000000000000000000000000073ffffffffffffffffffffffffffffffffffffffff166370a08231336040518263ffffffff1660e01b81526004016120bf9190612a44565b602060405180830381865afa1580156120dc573d6000803e3d6000fd5b505050506040513d601f19601f820116820180604052508101906121009190612cf4565b1015612141576040517f08c379a000000000000000000000000000000000000000000000000000000000815260040161213890613085565b60405180910390fd5b60008111612184576040517f08c379a000000000000000000000000000000000000000000000000000000000815260040161217b906130f1565b60405180910390fd5b60007f000000000000000000000000000000000000000000000000000000000000000073ffffffffffffffffffffffffffffffffffffffff166370a08231306040518263ffffffff1660e01b81526004016121df9190612a44565b602060405180830381865afa1580156121fc573d6000803e3d6000fd5b505050506040513d601f19601f820116820180604052508101906122209190612cf4565b90507f000000000000000000000000000000000000000000000000000000000000000073ffffffffffffffffffffffffffffffffffffffff166323b872dd3330856040518463ffffffff1660e01b815260040161227f93929190613111565b6020604051808303816000875af115801561229e573d6000803e3d6000fd5b505050506040513d601f19601f820116820180604052508101906122c29190612d82565b50816000808282546122d49190612b3a565b9250508190555081600260003373ffffffffffffffffffffffffffffffffffffffff1673ffffffffffffffffffffffffffffffffffffffff168152602001908152602001600020600082825461232a9190612b3a565b925050819055506004339080600181540180825580915050600190039060005260206000200160009091909190916101000a81548173ffffffffffffffffffffffffffffffffffffffff021916908373ffffffffffffffffffffffffffffffffffffffff16021790555081816123a09190612b3a565b7f000000000000000000000000000000000000000000000000000000000000000073ffffffffffffffffffffffffffffffffffffffff166370a08231306040518263ffffffff1660e01b81526004016123f99190612a44565b602060405180830381865afa158015612416573d6000803e3d6000fd5b505050506040513d601f19601f8201168201806040525081019061243a9190612cf4565b1461244857612447612de3565b5b7f2a89a9867ba3f0bd8d280793be9bc1d599e2063cf3e4dd8e7a321d907047982c827f000000000000000000000000000000000000000000000000000000000000000073ffffffffffffffffffffffffffffffffffffffff166306fdde036040518163ffffffff1660e01b8152600401600060405180830381865afa1580156124d5573d6000803e3d6000fd5b505050506040513d6000823e3d601f19601f820116820180604052508101906124fe9190612f7c565b60405161250c929190613009565b60405180910390a15050565b60005481565b7f000000000000000000000000000000000000000000000000000000000000000081565b60007f000000000000000000000000000000000000000000000000000000000000000073ffffffffffffffffffffffffffffffffffffffff166370a08231306040518263ffffffff1660e01b815260040161259d9190612a44565b602060405180830381865afa1580156125ba573d6000803e3d6000fd5b505050506040513d601f19601f820116820180604052508101906125de9190612cf4565b905090565b60005b60048054905081101561273557600082600154600360006005868154811061261157612610612adc565b5b9060005260206000200160009054906101000a900473ffffffffffffffffffffffffffffffffffffffff1673ffffffffffffffffffffffffffffffffffffffff1673ffffffffffffffffffffffffffffffffffffffff16815260200190815260200160002054612681919061323d565b61268b91906131b4565b90508060076000600585815481106126a6576126a5612adc565b5b9060005260206000200160009054906101000a900473ffffffffffffffffffffffffffffffffffffffff1673ffffffffffffffffffffffffffffffffffffffff1673ffffffffffffffffffffffffffffffffffffffff168152602001908152602001600020600082825461271a9190612b3a565b9250508190555050808061272d90612b90565b9150506125e6565b5050565b60005b60048054905081101561288b57600082600054600260006004868154811061276757612766612adc565b5b9060005260206000200160009054906101000a900473ffffffffffffffffffffffffffffffffffffffff1673ffffffffffffffffffffffffffffffffffffffff1673ffffffffffffffffffffffffffffffffffffffff168152602001908152602001600020546127d7919061323d565b6127e191906131b4565b90508060066000600485815481106127fc576127fb612adc565b5b9060005260206000200160009054906101000a900473ffffffffffffffffffffffffffffffffffffffff1673ffffffffffffffffffffffffffffffffffffffff1673ffffffffffffffffffffffffffffffffffffffff16815260200190815260200160002060008282546128709190612b3a565b9250508190555050808061288390612b90565b91505061273c565b5050565b6000604051905090565b600080fd5b600080fd5b6000819050919050565b6128b6816128a3565b81146128c157600080fd5b50565b6000813590506128d3816128ad565b92915050565b6000602082840312156128ef576128ee612899565b5b60006128fd848285016128c4565b91505092915050565b61290f816128a3565b82525050565b600060208201905061292a6000830184612906565b92915050565b600073ffffffffffffffffffffffffffffffffffffffff82169050919050565b6000819050919050565b600061297561297061296b84612930565b612950565b612930565b9050919050565b60006129878261295a565b9050919050565b60006129998261297c565b9050919050565b6129a98161298e565b82525050565b60006020820190506129c460008301846129a0565b92915050565b60006129d582612930565b9050919050565b6129e5816129ca565b81146129f057600080fd5b50565b600081359050612a02816129dc565b92915050565b600060208284031215612a1e57612a1d612899565b5b6000612a2c848285016129f3565b91505092915050565b612a3e816129ca565b82525050565b6000602082019050612a596000830184612a35565b92915050565b600082825260208201905092915050565b7f6f6e6c79206f776e657200000000000000000000000000000000000000000000600082015250565b6000612aa6600a83612a5f565b9150612ab182612a70565b602082019050919050565b60006020820190508181036000830152612ad581612a99565b9050919050565b7f4e487b7100000000000000000000000000000000000000000000000000000000600052603260045260246000fd5b7f4e487b7100000000000000000000000000000000000000000000000000000000600052601160045260246000fd5b6000612b45826128a3565b9150612b50836128a3565b9250827fffffffffffffffffffffffffffffffffffffffffffffffffffffffffffffffff03821115612b8557612b84612b0b565b5b828201905092915050565b6000612b9b826128a3565b91507fffffffffffffffffffffffffffffffffffffffffffffffffffffffffffffffff8203612bcd57612bcc612b0b565b5b600182019050919050565b7f4e487b7100000000000000000000000000000000000000000000000000000000600052603160045260246000fd5b7f4e6f7420656e61756768207374616b696e670000000000000000000000000000600082015250565b6000612c3d601283612a5f565b9150612c4882612c07565b602082019050919050565b60006020820190508181036000830152612c6c81612c30565b9050919050565b7f52656d6f7665206d6f7265207468616e20300000000000000000000000000000600082015250565b6000612ca9601283612a5f565b9150612cb482612c73565b602082019050919050565b60006020820190508181036000830152612cd881612c9c565b9050919050565b600081519050612cee816128ad565b92915050565b600060208284031215612d0a57612d09612899565b5b6000612d1884828501612cdf565b91505092915050565b6000604082019050612d366000830185612a35565b612d436020830184612906565b9392505050565b60008115159050919050565b612d5f81612d4a565b8114612d6a57600080fd5b50565b600081519050612d7c81612d56565b92915050565b600060208284031215612d9857612d97612899565b5b6000612da684828501612d6d565b91505092915050565b6000612dba826128a3565b9150612dc5836128a3565b925082821015612dd857612dd7612b0b565b5b828203905092915050565b7f4e487b7100000000000000000000000000000000000000000000000000000000600052600160045260246000fd5b600080fd5b600080fd5b6000601f19601f8301169050919050565b7f4e487b7100000000000000000000000000000000000000000000000000000000600052604160045260246000fd5b612e6582612e1c565b810181811067ffffffffffffffff82111715612e8457612e83612e2d565b5b80604052505050565b6000612e9761288f565b9050612ea38282612e5c565b919050565b600067ffffffffffffffff821115612ec357612ec2612e2d565b5b612ecc82612e1c565b9050602081019050919050565b60005b83811015612ef7578082015181840152602081019050612edc565b83811115612f06576000848401525b50505050565b6000612f1f612f1a84612ea8565b612e8d565b905082815260208101848484011115612f3b57612f3a612e17565b5b612f46848285612ed9565b509392505050565b600082601f830112612f6357612f62612e12565b5b8151612f73848260208601612f0c565b91505092915050565b600060208284031215612f9257612f91612899565b5b600082015167ffffffffffffffff811115612fb057612faf61289e565b5b612fbc84828501612f4e565b91505092915050565b600081519050919050565b6000612fdb82612fc5565b612fe58185612a5f565b9350612ff5818560208601612ed9565b612ffe81612e1c565b840191505092915050565b600060408201905061301e6000830185612906565b81810360208301526130308184612fd0565b90509392505050565b7f496e73756666696369656e742066756e64730000000000000000000000000000600082015250565b600061306f601283612a5f565b915061307a82613039565b602082019050919050565b6000602082019050818103600083015261309e81613062565b9050919050565b7f507574206d6f7265207468616e20300000000000000000000000000000000000600082015250565b60006130db600f83612a5f565b91506130e6826130a5565b602082019050919050565b6000602082019050818103600083015261310a816130ce565b9050919050565b60006060820190506131266000830186612a35565b6131336020830185612a35565b6131406040830184612906565b949350505050565b7f596f752068617665206e6f207072697a6520746f207769746864726177000000600082015250565b600061317e601d83612a5f565b915061318982613148565b602082019050919050565b600060208201905081810360008301526131ad81613171565b9050919050565b60006131bf826128a3565b91506131ca836128a3565b9250817fffffffffffffffffffffffffffffffffffffffffffffffffffffffffffffffff048311821515161561320357613202612b0b565b5b828202905092915050565b7f4e487b7100000000000000000000000000000000000000000000000000000000600052601260045260246000fd5b6000613248826128a3565b9150613253836128a3565b9250826132635761326261320e565b5b828204905092915050565b60006080820190506132836000830187612906565b6132906020830186612906565b81810360408301526132a28185612fd0565b905081810360608301526132b68184612fd0565b90509594505050505056fea2646970667358221220d4c2fc63ae8b4bdfaa5d7573c6d07a4c8eaedd02d187a03861dd3400cf02ff3264736f6c634300080d0033",
          "opcodes": "PUSH1 0xE0 PUSH1 0x40 MSTORE CALLVALUE DUP1 ISZERO PUSH3 0x11 JUMPI PUSH1 0x0 DUP1 REVERT JUMPDEST POP PUSH1 0x40 MLOAD PUSH3 0x35A9 CODESIZE SUB DUP1 PUSH3 0x35A9 DUP4 CODECOPY DUP2 DUP2 ADD PUSH1 0x40 MSTORE DUP2 ADD SWAP1 PUSH3 0x37 SWAP2 SWAP1 PUSH3 0x154 JUMP JUMPDEST DUP2 PUSH20 0xFFFFFFFFFFFFFFFFFFFFFFFFFFFFFFFFFFFFFFFF AND PUSH1 0x80 DUP2 PUSH20 0xFFFFFFFFFFFFFFFFFFFFFFFFFFFFFFFFFFFFFFFF AND DUP2 MSTORE POP POP DUP1 PUSH20 0xFFFFFFFFFFFFFFFFFFFFFFFFFFFFFFFFFFFFFFFF AND PUSH1 0xA0 DUP2 PUSH20 0xFFFFFFFFFFFFFFFFFFFFFFFFFFFFFFFFFFFFFFFF AND DUP2 MSTORE POP POP PUSH1 0x0 DUP1 DUP2 SWAP1 SSTORE POP PUSH1 0x0 PUSH1 0x1 DUP2 SWAP1 SSTORE POP CALLER PUSH20 0xFFFFFFFFFFFFFFFFFFFFFFFFFFFFFFFFFFFFFFFF AND PUSH1 0xC0 DUP2 PUSH20 0xFFFFFFFFFFFFFFFFFFFFFFFFFFFFFFFFFFFFFFFF AND DUP2 MSTORE POP POP POP POP PUSH3 0x19B JUMP JUMPDEST PUSH1 0x0 DUP1 REVERT JUMPDEST PUSH1 0x0 PUSH20 0xFFFFFFFFFFFFFFFFFFFFFFFFFFFFFFFFFFFFFFFF DUP3 AND SWAP1 POP SWAP2 SWAP1 POP JUMP JUMPDEST PUSH1 0x0 PUSH3 0x11C DUP3 PUSH3 0xEF JUMP JUMPDEST SWAP1 POP SWAP2 SWAP1 POP JUMP JUMPDEST PUSH3 0x12E DUP2 PUSH3 0x10F JUMP JUMPDEST DUP2 EQ PUSH3 0x13A JUMPI PUSH1 0x0 DUP1 REVERT JUMPDEST POP JUMP JUMPDEST PUSH1 0x0 DUP2 MLOAD SWAP1 POP PUSH3 0x14E DUP2 PUSH3 0x123 JUMP JUMPDEST SWAP3 SWAP2 POP POP JUMP JUMPDEST PUSH1 0x0 DUP1 PUSH1 0x40 DUP4 DUP6 SUB SLT ISZERO PUSH3 0x16E JUMPI PUSH3 0x16D PUSH3 0xEA JUMP JUMPDEST JUMPDEST PUSH1 0x0 PUSH3 0x17E DUP6 DUP3 DUP7 ADD PUSH3 0x13D JUMP JUMPDEST SWAP3 POP POP PUSH1 0x20 PUSH3 0x191 DUP6 DUP3 DUP7 ADD PUSH3 0x13D JUMP JUMPDEST SWAP2 POP POP SWAP3 POP SWAP3 SWAP1 POP JUMP JUMPDEST PUSH1 0x80 MLOAD PUSH1 0xA0 MLOAD PUSH1 0xC0 MLOAD PUSH2 0x32F7 PUSH3 0x2B2 PUSH1 0x0 CODECOPY PUSH1 0x0 DUP2 DUP2 PUSH2 0x400 ADD MSTORE PUSH2 0x2004 ADD MSTORE PUSH1 0x0 DUP2 DUP2 PUSH2 0x716 ADD MSTORE DUP2 DUP2 PUSH2 0x7B2 ADD MSTORE DUP2 DUP2 PUSH2 0x8CC ADD MSTORE DUP2 DUP2 PUSH2 0x996 ADD MSTORE DUP2 DUP2 PUSH2 0xA4B ADD MSTORE DUP2 DUP2 PUSH2 0xB6B ADD MSTORE DUP2 DUP2 PUSH2 0xC07 ADD MSTORE DUP2 DUP2 PUSH2 0xD86 ADD MSTORE DUP2 DUP2 PUSH2 0xE50 ADD MSTORE DUP2 DUP2 PUSH2 0x1075 ADD MSTORE DUP2 DUP2 PUSH2 0x116F ADD MSTORE DUP2 DUP2 PUSH2 0x12E6 ADD MSTORE DUP2 DUP2 PUSH2 0x1452 ADD MSTORE DUP2 DUP2 PUSH2 0x195E ADD MSTORE DUP2 DUP2 PUSH2 0x1ABD ADD MSTORE DUP2 DUP2 PUSH2 0x1B71 ADD MSTORE PUSH2 0x2520 ADD MSTORE PUSH1 0x0 DUP2 DUP2 PUSH2 0xEFE ADD MSTORE DUP2 DUP2 PUSH2 0x1387 ADD MSTORE DUP2 DUP2 PUSH2 0x14E6 ADD MSTORE DUP2 DUP2 PUSH2 0x16A3 ADD MSTORE DUP2 DUP2 PUSH2 0x1746 ADD MSTORE DUP2 DUP2 PUSH2 0x18BD ADD MSTORE DUP2 DUP2 PUSH2 0x1A29 ADD MSTORE DUP2 DUP2 PUSH2 0x1CD7 ADD MSTORE DUP2 DUP2 PUSH2 0x1D73 ADD MSTORE DUP2 DUP2 PUSH2 0x1E8C ADD MSTORE DUP2 DUP2 PUSH2 0x1F56 ADD MSTORE DUP2 DUP2 PUSH2 0x2068 ADD MSTORE DUP2 DUP2 PUSH2 0x2188 ADD MSTORE DUP2 DUP2 PUSH2 0x2224 ADD MSTORE DUP2 DUP2 PUSH2 0x23A2 ADD MSTORE DUP2 DUP2 PUSH2 0x246C ADD MSTORE PUSH2 0x2546 ADD MSTORE PUSH2 0x32F7 PUSH1 0x0 RETURN INVALID PUSH1 0x80 PUSH1 0x40 MSTORE CALLVALUE DUP1 ISZERO PUSH2 0x10 JUMPI PUSH1 0x0 DUP1 REVERT JUMPDEST POP PUSH1 0x4 CALLDATASIZE LT PUSH2 0x141 JUMPI PUSH1 0x0 CALLDATALOAD PUSH1 0xE0 SHR DUP1 PUSH4 0x5B1F8E0D GT PUSH2 0xB8 JUMPI DUP1 PUSH4 0x8DA5CB5B GT PUSH2 0x7C JUMPI DUP1 PUSH4 0x8DA5CB5B EQ PUSH2 0x33A JUMPI DUP1 PUSH4 0xA1F73F9C EQ PUSH2 0x358 JUMPI DUP1 PUSH4 0xBA0AF510 EQ PUSH2 0x388 JUMPI DUP1 PUSH4 0xC81533A4 EQ PUSH2 0x3A4 JUMPI DUP1 PUSH4 0xD21220A7 EQ PUSH2 0x3C2 JUMPI DUP1 PUSH4 0xF9D5263F EQ PUSH2 0x3E0 JUMPI PUSH2 0x141 JUMP JUMPDEST DUP1 PUSH4 0x5B1F8E0D EQ PUSH2 0x2BE JUMPI DUP1 PUSH4 0x5D862828 EQ PUSH2 0x2DA JUMPI DUP1 PUSH4 0x61B723CF EQ PUSH2 0x2E4 JUMPI DUP1 PUSH4 0x691EED56 EQ PUSH2 0x300 JUMPI DUP1 PUSH4 0x79144129 EQ PUSH2 0x31E JUMPI PUSH2 0x141 JUMP JUMPDEST DUP1 PUSH4 0x14CA9C39 GT PUSH2 0x10A JUMPI DUP1 PUSH4 0x14CA9C39 EQ PUSH2 0x1C4 JUMPI DUP1 PUSH4 0x367E6E8A EQ PUSH2 0x1F4 JUMPI DUP1 PUSH4 0x3A1F5228 EQ PUSH2 0x224 JUMPI DUP1 PUSH4 0x43817180 EQ PUSH2 0x254 JUMPI DUP1 PUSH4 0x4526D37D EQ PUSH2 0x25E JUMPI DUP1 PUSH4 0x4D3ED3D3 EQ PUSH2 0x28E JUMPI PUSH2 0x141 JUMP JUMPDEST DUP1 PUSH3 0xF0573 EQ PUSH2 0x146 JUMPI DUP1 PUSH4 0x1AFE5FA EQ PUSH2 0x150 JUMPI DUP1 PUSH4 0x5EA3ED5 EQ PUSH2 0x16C JUMPI DUP1 PUSH4 0x73DBFC4 EQ PUSH2 0x18A JUMPI DUP1 PUSH4 0xDFE1681 EQ PUSH2 0x1A6 JUMPI JUMPDEST PUSH1 0x0 DUP1 REVERT JUMPDEST PUSH2 0x14E PUSH2 0x3FE JUMP JUMPDEST STOP JUMPDEST PUSH2 0x16A PUSH1 0x4 DUP1 CALLDATASIZE SUB DUP2 ADD SWAP1 PUSH2 0x165 SWAP2 SWAP1 PUSH2 0x28D9 JUMP JUMPDEST PUSH2 0x64D JUMP JUMPDEST STOP JUMPDEST PUSH2 0x174 PUSH2 0xA42 JUMP JUMPDEST PUSH1 0x40 MLOAD PUSH2 0x181 SWAP2 SWAP1 PUSH2 0x2915 JUMP JUMPDEST PUSH1 0x40 MLOAD DUP1 SWAP2 SUB SWAP1 RETURN JUMPDEST PUSH2 0x1A4 PUSH1 0x4 DUP1 CALLDATASIZE SUB DUP2 ADD SWAP1 PUSH2 0x19F SWAP2 SWAP1 PUSH2 0x28D9 JUMP JUMPDEST PUSH2 0xA48 JUMP JUMPDEST STOP JUMPDEST PUSH2 0x1AE PUSH2 0xEFC JUMP JUMPDEST PUSH1 0x40 MLOAD PUSH2 0x1BB SWAP2 SWAP1 PUSH2 0x29AF JUMP JUMPDEST PUSH1 0x40 MLOAD DUP1 SWAP2 SUB SWAP1 RETURN JUMPDEST PUSH2 0x1DE PUSH1 0x4 DUP1 CALLDATASIZE SUB DUP2 ADD SWAP1 PUSH2 0x1D9 SWAP2 SWAP1 PUSH2 0x2A08 JUMP JUMPDEST PUSH2 0xF20 JUMP JUMPDEST PUSH1 0x40 MLOAD PUSH2 0x1EB SWAP2 SWAP1 PUSH2 0x2915 JUMP JUMPDEST PUSH1 0x40 MLOAD DUP1 SWAP2 SUB SWAP1 RETURN JUMPDEST PUSH2 0x20E PUSH1 0x4 DUP1 CALLDATASIZE SUB DUP2 ADD SWAP1 PUSH2 0x209 SWAP2 SWAP1 PUSH2 0x2A08 JUMP JUMPDEST PUSH2 0xF38 JUMP JUMPDEST PUSH1 0x40 MLOAD PUSH2 0x21B SWAP2 SWAP1 PUSH2 0x2915 JUMP JUMPDEST PUSH1 0x40 MLOAD DUP1 SWAP2 SUB SWAP1 RETURN JUMPDEST PUSH2 0x23E PUSH1 0x4 DUP1 CALLDATASIZE SUB DUP2 ADD SWAP1 PUSH2 0x239 SWAP2 SWAP1 PUSH2 0x2A08 JUMP JUMPDEST PUSH2 0xF50 JUMP JUMPDEST PUSH1 0x40 MLOAD PUSH2 0x24B SWAP2 SWAP1 PUSH2 0x2915 JUMP JUMPDEST PUSH1 0x40 MLOAD DUP1 SWAP2 SUB SWAP1 RETURN JUMPDEST PUSH2 0x25C PUSH2 0xF68 JUMP JUMPDEST STOP JUMPDEST PUSH2 0x278 PUSH1 0x4 DUP1 CALLDATASIZE SUB DUP2 ADD SWAP1 PUSH2 0x273 SWAP2 SWAP1 PUSH2 0x2A08 JUMP JUMPDEST PUSH2 0x1115 JUMP JUMPDEST PUSH1 0x40 MLOAD PUSH2 0x285 SWAP2 SWAP1 PUSH2 0x2915 JUMP JUMPDEST PUSH1 0x40 MLOAD DUP1 SWAP2 SUB SWAP1 RETURN JUMPDEST PUSH2 0x2A8 PUSH1 0x4 DUP1 CALLDATASIZE SUB DUP2 ADD SWAP1 PUSH2 0x2A3 SWAP2 SWAP1 PUSH2 0x28D9 JUMP JUMPDEST PUSH2 0x112D JUMP JUMPDEST PUSH1 0x40 MLOAD PUSH2 0x2B5 SWAP2 SWAP1 PUSH2 0x2A44 JUMP JUMPDEST PUSH1 0x40 MLOAD DUP1 SWAP2 SUB SWAP1 RETURN JUMPDEST PUSH2 0x2D8 PUSH1 0x4 DUP1 CALLDATASIZE SUB DUP2 ADD SWAP1 PUSH2 0x2D3 SWAP2 SWAP1 PUSH2 0x28D9 JUMP JUMPDEST PUSH2 0x116C JUMP JUMPDEST STOP JUMPDEST PUSH2 0x2E2 PUSH2 0x1596 JUMP JUMPDEST STOP JUMPDEST PUSH2 0x2FE PUSH1 0x4 DUP1 CALLDATASIZE SUB DUP2 ADD SWAP1 PUSH2 0x2F9 SWAP2 SWAP1 PUSH2 0x28D9 JUMP JUMPDEST PUSH2 0x1743 JUMP JUMPDEST STOP JUMPDEST PUSH2 0x308 PUSH2 0x1B6D JUMP JUMPDEST PUSH1 0x40 MLOAD PUSH2 0x315 SWAP2 SWAP1 PUSH2 0x2915 JUMP JUMPDEST PUSH1 0x40 MLOAD DUP1 SWAP2 SUB SWAP1 RETURN JUMPDEST PUSH2 0x338 PUSH1 0x4 DUP1 CALLDATASIZE SUB DUP2 ADD SWAP1 PUSH2 0x333 SWAP2 SWAP1 PUSH2 0x28D9 JUMP JUMPDEST PUSH2 0x1C0E JUMP JUMPDEST STOP JUMPDEST PUSH2 0x342 PUSH2 0x2002 JUMP JUMPDEST PUSH1 0x40 MLOAD PUSH2 0x34F SWAP2 SWAP1 PUSH2 0x2A44 JUMP JUMPDEST PUSH1 0x40 MLOAD DUP1 SWAP2 SUB SWAP1 RETURN JUMPDEST PUSH2 0x372 PUSH1 0x4 DUP1 CALLDATASIZE SUB DUP2 ADD SWAP1 PUSH2 0x36D SWAP2 SWAP1 PUSH2 0x28D9 JUMP JUMPDEST PUSH2 0x2026 JUMP JUMPDEST PUSH1 0x40 MLOAD PUSH2 0x37F SWAP2 SWAP1 PUSH2 0x2A44 JUMP JUMPDEST PUSH1 0x40 MLOAD DUP1 SWAP2 SUB SWAP1 RETURN JUMPDEST PUSH2 0x3A2 PUSH1 0x4 DUP1 CALLDATASIZE SUB DUP2 ADD SWAP1 PUSH2 0x39D SWAP2 SWAP1 PUSH2 0x28D9 JUMP JUMPDEST PUSH2 0x2065 JUMP JUMPDEST STOP JUMPDEST PUSH2 0x3AC PUSH2 0x2518 JUMP JUMPDEST PUSH1 0x40 MLOAD PUSH2 0x3B9 SWAP2 SWAP1 PUSH2 0x2915 JUMP JUMPDEST PUSH1 0x40 MLOAD DUP1 SWAP2 SUB SWAP1 RETURN JUMPDEST PUSH2 0x3CA PUSH2 0x251E JUMP JUMPDEST PUSH1 0x40 MLOAD PUSH2 0x3D7 SWAP2 SWAP1 PUSH2 0x29AF JUMP JUMPDEST PUSH1 0x40 MLOAD DUP1 SWAP2 SUB SWAP1 RETURN JUMPDEST PUSH2 0x3E8 PUSH2 0x2542 JUMP JUMPDEST PUSH1 0x40 MLOAD PUSH2 0x3F5 SWAP2 SWAP1 PUSH2 0x2915 JUMP JUMPDEST PUSH1 0x40 MLOAD DUP1 SWAP2 SUB SWAP1 RETURN JUMPDEST PUSH32 0x0 PUSH20 0xFFFFFFFFFFFFFFFFFFFFFFFFFFFFFFFFFFFFFFFF AND CALLER PUSH20 0xFFFFFFFFFFFFFFFFFFFFFFFFFFFFFFFFFFFFFFFF AND EQ PUSH2 0x48C JUMPI PUSH1 0x40 MLOAD PUSH32 0x8C379A000000000000000000000000000000000000000000000000000000000 DUP2 MSTORE PUSH1 0x4 ADD PUSH2 0x483 SWAP1 PUSH2 0x2ABC JUMP JUMPDEST PUSH1 0x40 MLOAD DUP1 SWAP2 SUB SWAP1 REVERT JUMPDEST PUSH1 0x0 JUMPDEST PUSH1 0x4 DUP1 SLOAD SWAP1 POP DUP2 LT ISZERO PUSH2 0x64A JUMPI PUSH1 0x0 PUSH1 0x2 PUSH1 0x0 PUSH1 0x4 DUP5 DUP2 SLOAD DUP2 LT PUSH2 0x4B6 JUMPI PUSH2 0x4B5 PUSH2 0x2ADC JUMP JUMPDEST JUMPDEST SWAP1 PUSH1 0x0 MSTORE PUSH1 0x20 PUSH1 0x0 KECCAK256 ADD PUSH1 0x0 SWAP1 SLOAD SWAP1 PUSH2 0x100 EXP SWAP1 DIV PUSH20 0xFFFFFFFFFFFFFFFFFFFFFFFFFFFFFFFFFFFFFFFF AND PUSH20 0xFFFFFFFFFFFFFFFFFFFFFFFFFFFFFFFFFFFFFFFF AND PUSH20 0xFFFFFFFFFFFFFFFFFFFFFFFFFFFFFFFFFFFFFFFF AND DUP2 MSTORE PUSH1 0x20 ADD SWAP1 DUP2 MSTORE PUSH1 0x20 ADD PUSH1 0x0 KECCAK256 SLOAD SUB PUSH2 0x637 JUMPI PUSH1 0x0 DUP2 SWAP1 POP JUMPDEST PUSH1 0x4 DUP1 SLOAD SWAP1 POP DUP2 LT ISZERO PUSH2 0x5EE JUMPI PUSH1 0x4 PUSH1 0x1 DUP3 PUSH2 0x543 SWAP2 SWAP1 PUSH2 0x2B3A JUMP JUMPDEST DUP2 SLOAD DUP2 LT PUSH2 0x554 JUMPI PUSH2 0x553 PUSH2 0x2ADC JUMP JUMPDEST JUMPDEST SWAP1 PUSH1 0x0 MSTORE PUSH1 0x20 PUSH1 0x0 KECCAK256 ADD PUSH1 0x0 SWAP1 SLOAD SWAP1 PUSH2 0x100 EXP SWAP1 DIV PUSH20 0xFFFFFFFFFFFFFFFFFFFFFFFFFFFFFFFFFFFFFFFF AND PUSH1 0x4 DUP3 DUP2 SLOAD DUP2 LT PUSH2 0x593 JUMPI PUSH2 0x592 PUSH2 0x2ADC JUMP JUMPDEST JUMPDEST SWAP1 PUSH1 0x0 MSTORE PUSH1 0x20 PUSH1 0x0 KECCAK256 ADD PUSH1 0x0 PUSH2 0x100 EXP DUP2 SLOAD DUP2 PUSH20 0xFFFFFFFFFFFFFFFFFFFFFFFFFFFFFFFFFFFFFFFF MUL NOT AND SWAP1 DUP4 PUSH20 0xFFFFFFFFFFFFFFFFFFFFFFFFFFFFFFFFFFFFFFFF AND MUL OR SWAP1 SSTORE POP DUP1 DUP1 PUSH2 0x5E6 SWAP1 PUSH2 0x2B90 JUMP JUMPDEST SWAP2 POP POP PUSH2 0x527 JUMP JUMPDEST POP PUSH1 0x4 DUP1 SLOAD DUP1 PUSH2 0x601 JUMPI PUSH2 0x600 PUSH2 0x2BD8 JUMP JUMPDEST JUMPDEST PUSH1 0x1 SWAP1 SUB DUP2 DUP2 SWAP1 PUSH1 0x0 MSTORE PUSH1 0x20 PUSH1 0x0 KECCAK256 ADD PUSH1 0x0 PUSH2 0x100 EXP DUP2 SLOAD SWAP1 PUSH20 0xFFFFFFFFFFFFFFFFFFFFFFFFFFFFFFFFFFFFFFFF MUL NOT AND SWAP1 SSTORE SWAP1 SSTORE JUMPDEST DUP1 DUP1 PUSH2 0x642 SWAP1 PUSH2 0x2B90 JUMP JUMPDEST SWAP2 POP POP PUSH2 0x48F JUMP JUMPDEST POP JUMP JUMPDEST DUP1 PUSH1 0x3 PUSH1 0x0 CALLER PUSH20 0xFFFFFFFFFFFFFFFFFFFFFFFFFFFFFFFFFFFFFFFF AND PUSH20 0xFFFFFFFFFFFFFFFFFFFFFFFFFFFFFFFFFFFFFFFF AND DUP2 MSTORE PUSH1 0x20 ADD SWAP1 DUP2 MSTORE PUSH1 0x20 ADD PUSH1 0x0 KECCAK256 SLOAD LT ISZERO PUSH2 0x6CF JUMPI PUSH1 0x40 MLOAD PUSH32 0x8C379A000000000000000000000000000000000000000000000000000000000 DUP2 MSTORE PUSH1 0x4 ADD PUSH2 0x6C6 SWAP1 PUSH2 0x2C53 JUMP JUMPDEST PUSH1 0x40 MLOAD DUP1 SWAP2 SUB SWAP1 REVERT JUMPDEST PUSH1 0x0 DUP2 GT PUSH2 0x712 JUMPI PUSH1 0x40 MLOAD PUSH32 0x8C379A000000000000000000000000000000000000000000000000000000000 DUP2 MSTORE PUSH1 0x4 ADD PUSH2 0x709 SWAP1 PUSH2 0x2CBF JUMP JUMPDEST PUSH1 0x40 MLOAD DUP1 SWAP2 SUB SWAP1 REVERT JUMPDEST PUSH1 0x0 PUSH32 0x0 PUSH20 0xFFFFFFFFFFFFFFFFFFFFFFFFFFFFFFFFFFFFFFFF AND PUSH4 0x70A08231 ADDRESS PUSH1 0x40 MLOAD DUP3 PUSH4 0xFFFFFFFF AND PUSH1 0xE0 SHL DUP2 MSTORE PUSH1 0x4 ADD PUSH2 0x76D SWAP2 SWAP1 PUSH2 0x2A44 JUMP JUMPDEST PUSH1 0x20 PUSH1 0x40 MLOAD DUP1 DUP4 SUB DUP2 DUP7 GAS STATICCALL ISZERO DUP1 ISZERO PUSH2 0x78A JUMPI RETURNDATASIZE PUSH1 0x0 DUP1 RETURNDATACOPY RETURNDATASIZE PUSH1 0x0 REVERT JUMPDEST POP POP POP POP PUSH1 0x40 MLOAD RETURNDATASIZE PUSH1 0x1F NOT PUSH1 0x1F DUP3 ADD AND DUP3 ADD DUP1 PUSH1 0x40 MSTORE POP DUP2 ADD SWAP1 PUSH2 0x7AE SWAP2 SWAP1 PUSH2 0x2CF4 JUMP JUMPDEST SWAP1 POP PUSH32 0x0 PUSH20 0xFFFFFFFFFFFFFFFFFFFFFFFFFFFFFFFFFFFFFFFF AND PUSH4 0xA9059CBB CALLER DUP5 PUSH1 0x40 MLOAD DUP4 PUSH4 0xFFFFFFFF AND PUSH1 0xE0 SHL DUP2 MSTORE PUSH1 0x4 ADD PUSH2 0x80B SWAP3 SWAP2 SWAP1 PUSH2 0x2D21 JUMP JUMPDEST PUSH1 0x20 PUSH1 0x40 MLOAD DUP1 DUP4 SUB DUP2 PUSH1 0x0 DUP8 GAS CALL ISZERO DUP1 ISZERO PUSH2 0x82A JUMPI RETURNDATASIZE PUSH1 0x0 DUP1 RETURNDATACOPY RETURNDATASIZE PUSH1 0x0 REVERT JUMPDEST POP POP POP POP PUSH1 0x40 MLOAD RETURNDATASIZE PUSH1 0x1F NOT PUSH1 0x1F DUP3 ADD AND DUP3 ADD DUP1 PUSH1 0x40 MSTORE POP DUP2 ADD SWAP1 PUSH2 0x84E SWAP2 SWAP1 PUSH2 0x2D82 JUMP JUMPDEST POP DUP2 PUSH1 0x1 PUSH1 0x0 DUP3 DUP3 SLOAD PUSH2 0x861 SWAP2 SWAP1 PUSH2 0x2DAF JUMP JUMPDEST SWAP3 POP POP DUP2 SWAP1 SSTORE POP DUP2 PUSH1 0x3 PUSH1 0x0 CALLER PUSH20 0xFFFFFFFFFFFFFFFFFFFFFFFFFFFFFFFFFFFFFFFF AND PUSH20 0xFFFFFFFFFFFFFFFFFFFFFFFFFFFFFFFFFFFFFFFF AND DUP2 MSTORE PUSH1 0x20 ADD SWAP1 DUP2 MSTORE PUSH1 0x20 ADD PUSH1 0x0 KECCAK256 PUSH1 0x0 DUP3 DUP3 SLOAD PUSH2 0x8B7 SWAP2 SWAP1 PUSH2 0x2DAF JUMP JUMPDEST SWAP3 POP POP DUP2 SWAP1 SSTORE POP DUP2 DUP2 PUSH2 0x8CA SWAP2 SWAP1 PUSH2 0x2DAF JUMP JUMPDEST PUSH32 0x0 PUSH20 0xFFFFFFFFFFFFFFFFFFFFFFFFFFFFFFFFFFFFFFFF AND PUSH4 0x70A08231 ADDRESS PUSH1 0x40 MLOAD DUP3 PUSH4 0xFFFFFFFF AND PUSH1 0xE0 SHL DUP2 MSTORE PUSH1 0x4 ADD PUSH2 0x923 SWAP2 SWAP1 PUSH2 0x2A44 JUMP JUMPDEST PUSH1 0x20 PUSH1 0x40 MLOAD DUP1 DUP4 SUB DUP2 DUP7 GAS STATICCALL ISZERO DUP1 ISZERO PUSH2 0x940 JUMPI RETURNDATASIZE PUSH1 0x0 DUP1 RETURNDATACOPY RETURNDATASIZE PUSH1 0x0 REVERT JUMPDEST POP POP POP POP PUSH1 0x40 MLOAD RETURNDATASIZE PUSH1 0x1F NOT PUSH1 0x1F DUP3 ADD AND DUP3 ADD DUP1 PUSH1 0x40 MSTORE POP DUP2 ADD SWAP1 PUSH2 0x964 SWAP2 SWAP1 PUSH2 0x2CF4 JUMP JUMPDEST EQ PUSH2 0x972 JUMPI PUSH2 0x971 PUSH2 0x2DE3 JUMP JUMPDEST JUMPDEST PUSH32 0xB659D979A9EEBBDF7D424DFA6AABDA43BDEDF0134D00557D804F960517B08572 DUP3 PUSH32 0x0 PUSH20 0xFFFFFFFFFFFFFFFFFFFFFFFFFFFFFFFFFFFFFFFF AND PUSH4 0x6FDDE03 PUSH1 0x40 MLOAD DUP2 PUSH4 0xFFFFFFFF AND PUSH1 0xE0 SHL DUP2 MSTORE PUSH1 0x4 ADD PUSH1 0x0 PUSH1 0x40 MLOAD DUP1 DUP4 SUB DUP2 DUP7 GAS STATICCALL ISZERO DUP1 ISZERO PUSH2 0x9FF JUMPI RETURNDATASIZE PUSH1 0x0 DUP1 RETURNDATACOPY RETURNDATASIZE PUSH1 0x0 REVERT JUMPDEST POP POP POP POP PUSH1 0x40 MLOAD RETURNDATASIZE PUSH1 0x0 DUP3 RETURNDATACOPY RETURNDATASIZE PUSH1 0x1F NOT PUSH1 0x1F DUP3 ADD AND DUP3 ADD DUP1 PUSH1 0x40 MSTORE POP DUP2 ADD SWAP1 PUSH2 0xA28 SWAP2 SWAP1 PUSH2 0x2F7C JUMP JUMPDEST PUSH1 0x40 MLOAD PUSH2 0xA36 SWAP3 SWAP2 SWAP1 PUSH2 0x3009 JUMP JUMPDEST PUSH1 0x40 MLOAD DUP1 SWAP2 SUB SWAP1 LOG1 POP POP JUMP JUMPDEST PUSH1 0x1 SLOAD DUP2 JUMP JUMPDEST DUP1 PUSH32 0x0 PUSH20 0xFFFFFFFFFFFFFFFFFFFFFFFFFFFFFFFFFFFFFFFF AND PUSH4 0x70A08231 CALLER PUSH1 0x40 MLOAD DUP3 PUSH4 0xFFFFFFFF AND PUSH1 0xE0 SHL DUP2 MSTORE PUSH1 0x4 ADD PUSH2 0xAA2 SWAP2 SWAP1 PUSH2 0x2A44 JUMP JUMPDEST PUSH1 0x20 PUSH1 0x40 MLOAD DUP1 DUP4 SUB DUP2 DUP7 GAS STATICCALL ISZERO DUP1 ISZERO PUSH2 0xABF JUMPI RETURNDATASIZE PUSH1 0x0 DUP1 RETURNDATACOPY RETURNDATASIZE PUSH1 0x0 REVERT JUMPDEST POP POP POP POP PUSH1 0x40 MLOAD RETURNDATASIZE PUSH1 0x1F NOT PUSH1 0x1F DUP3 ADD AND DUP3 ADD DUP1 PUSH1 0x40 MSTORE POP DUP2 ADD SWAP1 PUSH2 0xAE3 SWAP2 SWAP1 PUSH2 0x2CF4 JUMP JUMPDEST LT ISZERO PUSH2 0xB24 JUMPI PUSH1 0x40 MLOAD PUSH32 0x8C379A000000000000000000000000000000000000000000000000000000000 DUP2 MSTORE PUSH1 0x4 ADD PUSH2 0xB1B SWAP1 PUSH2 0x3085 JUMP JUMPDEST PUSH1 0x40 MLOAD DUP1 SWAP2 SUB SWAP1 REVERT JUMPDEST PUSH1 0x0 DUP2 GT PUSH2 0xB67 JUMPI PUSH1 0x40 MLOAD PUSH32 0x8C379A000000000000000000000000000000000000000000000000000000000 DUP2 MSTORE PUSH1 0x4 ADD PUSH2 0xB5E SWAP1 PUSH2 0x30F1 JUMP JUMPDEST PUSH1 0x40 MLOAD DUP1 SWAP2 SUB SWAP1 REVERT JUMPDEST PUSH1 0x0 PUSH32 0x0 PUSH20 0xFFFFFFFFFFFFFFFFFFFFFFFFFFFFFFFFFFFFFFFF AND PUSH4 0x70A08231 ADDRESS PUSH1 0x40 MLOAD DUP3 PUSH4 0xFFFFFFFF AND PUSH1 0xE0 SHL DUP2 MSTORE PUSH1 0x4 ADD PUSH2 0xBC2 SWAP2 SWAP1 PUSH2 0x2A44 JUMP JUMPDEST PUSH1 0x20 PUSH1 0x40 MLOAD DUP1 DUP4 SUB DUP2 DUP7 GAS STATICCALL ISZERO DUP1 ISZERO PUSH2 0xBDF JUMPI RETURNDATASIZE PUSH1 0x0 DUP1 RETURNDATACOPY RETURNDATASIZE PUSH1 0x0 REVERT JUMPDEST POP POP POP POP PUSH1 0x40 MLOAD RETURNDATASIZE PUSH1 0x1F NOT PUSH1 0x1F DUP3 ADD AND DUP3 ADD DUP1 PUSH1 0x40 MSTORE POP DUP2 ADD SWAP1 PUSH2 0xC03 SWAP2 SWAP1 PUSH2 0x2CF4 JUMP JUMPDEST SWAP1 POP PUSH32 0x0 PUSH20 0xFFFFFFFFFFFFFFFFFFFFFFFFFFFFFFFFFFFFFFFF AND PUSH4 0x23B872DD CALLER ADDRESS DUP6 PUSH1 0x40 MLOAD DUP5 PUSH4 0xFFFFFFFF AND PUSH1 0xE0 SHL DUP2 MSTORE PUSH1 0x4 ADD PUSH2 0xC62 SWAP4 SWAP3 SWAP2 SWAP1 PUSH2 0x3111 JUMP JUMPDEST PUSH1 0x20 PUSH1 0x40 MLOAD DUP1 DUP4 SUB DUP2 PUSH1 0x0 DUP8 GAS CALL ISZERO DUP1 ISZERO PUSH2 0xC81 JUMPI RETURNDATASIZE PUSH1 0x0 DUP1 RETURNDATACOPY RETURNDATASIZE PUSH1 0x0 REVERT JUMPDEST POP POP POP POP PUSH1 0x40 MLOAD RETURNDATASIZE PUSH1 0x1F NOT PUSH1 0x1F DUP3 ADD AND DUP3 ADD DUP1 PUSH1 0x40 MSTORE POP DUP2 ADD SWAP1 PUSH2 0xCA5 SWAP2 SWAP1 PUSH2 0x2D82 JUMP JUMPDEST POP DUP2 PUSH1 0x1 PUSH1 0x0 DUP3 DUP3 SLOAD PUSH2 0xCB8 SWAP2 SWAP1 PUSH2 0x2B3A JUMP JUMPDEST SWAP3 POP POP DUP2 SWAP1 SSTORE POP DUP2 PUSH1 0x3 PUSH1 0x0 CALLER PUSH20 0xFFFFFFFFFFFFFFFFFFFFFFFFFFFFFFFFFFFFFFFF AND PUSH20 0xFFFFFFFFFFFFFFFFFFFFFFFFFFFFFFFFFFFFFFFF AND DUP2 MSTORE PUSH1 0x20 ADD SWAP1 DUP2 MSTORE PUSH1 0x20 ADD PUSH1 0x0 KECCAK256 PUSH1 0x0 DUP3 DUP3 SLOAD PUSH2 0xD0E SWAP2 SWAP1 PUSH2 0x2B3A JUMP JUMPDEST SWAP3 POP POP DUP2 SWAP1 SSTORE POP PUSH1 0x5 CALLER SWAP1 DUP1 PUSH1 0x1 DUP2 SLOAD ADD DUP1 DUP3 SSTORE DUP1 SWAP2 POP POP PUSH1 0x1 SWAP1 SUB SWAP1 PUSH1 0x0 MSTORE PUSH1 0x20 PUSH1 0x0 KECCAK256 ADD PUSH1 0x0 SWAP1 SWAP2 SWAP1 SWAP2 SWAP1 SWAP2 PUSH2 0x100 EXP DUP2 SLOAD DUP2 PUSH20 0xFFFFFFFFFFFFFFFFFFFFFFFFFFFFFFFFFFFFFFFF MUL NOT AND SWAP1 DUP4 PUSH20 0xFFFFFFFFFFFFFFFFFFFFFFFFFFFFFFFFFFFFFFFF AND MUL OR SWAP1 SSTORE POP DUP2 DUP2 PUSH2 0xD84 SWAP2 SWAP1 PUSH2 0x2B3A JUMP JUMPDEST PUSH32 0x0 PUSH20 0xFFFFFFFFFFFFFFFFFFFFFFFFFFFFFFFFFFFFFFFF AND PUSH4 0x70A08231 ADDRESS PUSH1 0x40 MLOAD DUP3 PUSH4 0xFFFFFFFF AND PUSH1 0xE0 SHL DUP2 MSTORE PUSH1 0x4 ADD PUSH2 0xDDD SWAP2 SWAP1 PUSH2 0x2A44 JUMP JUMPDEST PUSH1 0x20 PUSH1 0x40 MLOAD DUP1 DUP4 SUB DUP2 DUP7 GAS STATICCALL ISZERO DUP1 ISZERO PUSH2 0xDFA JUMPI RETURNDATASIZE PUSH1 0x0 DUP1 RETURNDATACOPY RETURNDATASIZE PUSH1 0x0 REVERT JUMPDEST POP POP POP POP PUSH1 0x40 MLOAD RETURNDATASIZE PUSH1 0x1F NOT PUSH1 0x1F DUP3 ADD AND DUP3 ADD DUP1 PUSH1 0x40 MSTORE POP DUP2 ADD SWAP1 PUSH2 0xE1E SWAP2 SWAP1 PUSH2 0x2CF4 JUMP JUMPDEST EQ PUSH2 0xE2C JUMPI PUSH2 0xE2B PUSH2 0x2DE3 JUMP JUMPDEST JUMPDEST PUSH32 0x2A89A9867BA3F0BD8D280793BE9BC1D599E2063CF3E4DD8E7A321D907047982C DUP3 PUSH32 0x0 PUSH20 0xFFFFFFFFFFFFFFFFFFFFFFFFFFFFFFFFFFFFFFFF AND PUSH4 0x6FDDE03 PUSH1 0x40 MLOAD DUP2 PUSH4 0xFFFFFFFF AND PUSH1 0xE0 SHL DUP2 MSTORE PUSH1 0x4 ADD PUSH1 0x0 PUSH1 0x40 MLOAD DUP1 DUP4 SUB DUP2 DUP7 GAS STATICCALL ISZERO DUP1 ISZERO PUSH2 0xEB9 JUMPI RETURNDATASIZE PUSH1 0x0 DUP1 RETURNDATACOPY RETURNDATASIZE PUSH1 0x0 REVERT JUMPDEST POP POP POP POP PUSH1 0x40 MLOAD RETURNDATASIZE PUSH1 0x0 DUP3 RETURNDATACOPY RETURNDATASIZE PUSH1 0x1F NOT PUSH1 0x1F DUP3 ADD AND DUP3 ADD DUP1 PUSH1 0x40 MSTORE POP DUP2 ADD SWAP1 PUSH2 0xEE2 SWAP2 SWAP1 PUSH2 0x2F7C JUMP JUMPDEST PUSH1 0x40 MLOAD PUSH2 0xEF0 SWAP3 SWAP2 SWAP1 PUSH2 0x3009 JUMP JUMPDEST PUSH1 0x40 MLOAD DUP1 SWAP2 SUB SWAP1 LOG1 POP POP JUMP JUMPDEST PUSH32 0x0 DUP2 JUMP JUMPDEST PUSH1 0x6 PUSH1 0x20 MSTORE DUP1 PUSH1 0x0 MSTORE PUSH1 0x40 PUSH1 0x0 KECCAK256 PUSH1 0x0 SWAP2 POP SWAP1 POP SLOAD DUP2 JUMP JUMPDEST PUSH1 0x2 PUSH1 0x20 MSTORE DUP1 PUSH1 0x0 MSTORE PUSH1 0x40 PUSH1 0x0 KECCAK256 PUSH1 0x0 SWAP2 POP SWAP1 POP SLOAD DUP2 JUMP JUMPDEST PUSH1 0x3 PUSH1 0x20 MSTORE DUP1 PUSH1 0x0 MSTORE PUSH1 0x40 PUSH1 0x0 KECCAK256 PUSH1 0x0 SWAP2 POP SWAP1 POP SLOAD DUP2 JUMP JUMPDEST PUSH1 0x0 PUSH1 0x7 PUSH1 0x0 CALLER PUSH20 0xFFFFFFFFFFFFFFFFFFFFFFFFFFFFFFFFFFFFFFFF AND PUSH20 0xFFFFFFFFFFFFFFFFFFFFFFFFFFFFFFFFFFFFFFFF AND DUP2 MSTORE PUSH1 0x20 ADD SWAP1 DUP2 MSTORE PUSH1 0x20 ADD PUSH1 0x0 KECCAK256 SLOAD GT PUSH2 0xFEA JUMPI PUSH1 0x40 MLOAD PUSH32 0x8C379A000000000000000000000000000000000000000000000000000000000 DUP2 MSTORE PUSH1 0x4 ADD PUSH2 0xFE1 SWAP1 PUSH2 0x3194 JUMP JUMPDEST PUSH1 0x40 MLOAD DUP1 SWAP2 SUB SWAP1 REVERT JUMPDEST PUSH1 0x0 PUSH1 0x7 PUSH1 0x0 CALLER PUSH20 0xFFFFFFFFFFFFFFFFFFFFFFFFFFFFFFFFFFFFFFFF AND PUSH20 0xFFFFFFFFFFFFFFFFFFFFFFFFFFFFFFFFFFFFFFFF AND DUP2 MSTORE PUSH1 0x20 ADD SWAP1 DUP2 MSTORE PUSH1 0x20 ADD PUSH1 0x0 KECCAK256 SLOAD SWAP1 POP PUSH1 0x0 PUSH1 0x7 PUSH1 0x0 CALLER PUSH20 0xFFFFFFFFFFFFFFFFFFFFFFFFFFFFFFFFFFFFFFFF AND PUSH20 0xFFFFFFFFFFFFFFFFFFFFFFFFFFFFFFFFFFFFFFFF AND DUP2 MSTORE PUSH1 0x20 ADD SWAP1 DUP2 MSTORE PUSH1 0x20 ADD PUSH1 0x0 KECCAK256 DUP2 SWAP1 SSTORE POP PUSH32 0x0 PUSH20 0xFFFFFFFFFFFFFFFFFFFFFFFFFFFFFFFFFFFFFFFF AND PUSH4 0xA9059CBB CALLER DUP4 PUSH1 0x40 MLOAD DUP4 PUSH4 0xFFFFFFFF AND PUSH1 0xE0 SHL DUP2 MSTORE PUSH1 0x4 ADD PUSH2 0x10CE SWAP3 SWAP2 SWAP1 PUSH2 0x2D21 JUMP JUMPDEST PUSH1 0x20 PUSH1 0x40 MLOAD DUP1 DUP4 SUB DUP2 PUSH1 0x0 DUP8 GAS CALL ISZERO DUP1 ISZERO PUSH2 0x10ED JUMPI RETURNDATASIZE PUSH1 0x0 DUP1 RETURNDATACOPY RETURNDATASIZE PUSH1 0x0 REVERT JUMPDEST POP POP POP POP PUSH1 0x40 MLOAD RETURNDATASIZE PUSH1 0x1F NOT PUSH1 0x1F DUP3 ADD AND DUP3 ADD DUP1 PUSH1 0x40 MSTORE POP DUP2 ADD SWAP1 PUSH2 0x1111 SWAP2 SWAP1 PUSH2 0x2D82 JUMP JUMPDEST POP POP JUMP JUMPDEST PUSH1 0x7 PUSH1 0x20 MSTORE DUP1 PUSH1 0x0 MSTORE PUSH1 0x40 PUSH1 0x0 KECCAK256 PUSH1 0x0 SWAP2 POP SWAP1 POP SLOAD DUP2 JUMP JUMPDEST PUSH1 0x4 DUP2 DUP2 SLOAD DUP2 LT PUSH2 0x113D JUMPI PUSH1 0x0 DUP1 REVERT JUMPDEST SWAP1 PUSH1 0x0 MSTORE PUSH1 0x20 PUSH1 0x0 KECCAK256 ADD PUSH1 0x0 SWAP2 POP SLOAD SWAP1 PUSH2 0x100 EXP SWAP1 DIV PUSH20 0xFFFFFFFFFFFFFFFFFFFFFFFFFFFFFFFFFFFFFFFF AND DUP2 JUMP JUMPDEST DUP1 PUSH32 0x0 PUSH20 0xFFFFFFFFFFFFFFFFFFFFFFFFFFFFFFFFFFFFFFFF AND PUSH4 0x70A08231 CALLER PUSH1 0x40 MLOAD DUP3 PUSH4 0xFFFFFFFF AND PUSH1 0xE0 SHL DUP2 MSTORE PUSH1 0x4 ADD PUSH2 0x11C6 SWAP2 SWAP1 PUSH2 0x2A44 JUMP JUMPDEST PUSH1 0x20 PUSH1 0x40 MLOAD DUP1 DUP4 SUB DUP2 DUP7 GAS STATICCALL ISZERO DUP1 ISZERO PUSH2 0x11E3 JUMPI RETURNDATASIZE PUSH1 0x0 DUP1 RETURNDATACOPY RETURNDATASIZE PUSH1 0x0 REVERT JUMPDEST POP POP POP POP PUSH1 0x40 MLOAD RETURNDATASIZE PUSH1 0x1F NOT PUSH1 0x1F DUP3 ADD AND DUP3 ADD DUP1 PUSH1 0x40 MSTORE POP DUP2 ADD SWAP1 PUSH2 0x1207 SWAP2 SWAP1 PUSH2 0x2CF4 JUMP JUMPDEST LT ISZERO PUSH2 0x1248 JUMPI PUSH1 0x40 MLOAD PUSH32 0x8C379A000000000000000000000000000000000000000000000000000000000 DUP2 MSTORE PUSH1 0x4 ADD PUSH2 0x123F SWAP1 PUSH2 0x3085 JUMP JUMPDEST PUSH1 0x40 MLOAD DUP1 SWAP2 SUB SWAP1 REVERT JUMPDEST PUSH1 0x0 DUP2 GT PUSH2 0x128B JUMPI PUSH1 0x40 MLOAD PUSH32 0x8C379A000000000000000000000000000000000000000000000000000000000 DUP2 MSTORE PUSH1 0x4 ADD PUSH2 0x1282 SWAP1 PUSH2 0x30F1 JUMP JUMPDEST PUSH1 0x40 MLOAD DUP1 SWAP2 SUB SWAP1 REVERT JUMPDEST PUSH1 0x0 PUSH2 0x3E8 PUSH2 0x3E6 DUP4 PUSH2 0x129E SWAP2 SWAP1 PUSH2 0x31B4 JUMP JUMPDEST PUSH2 0x12A8 SWAP2 SWAP1 PUSH2 0x323D JUMP JUMPDEST SWAP1 POP PUSH1 0x0 DUP2 DUP4 PUSH2 0x12B8 SWAP2 SWAP1 PUSH2 0x2DAF JUMP JUMPDEST SWAP1 POP PUSH1 0x0 DUP3 PUSH1 0x1 SLOAD PUSH2 0x12CA SWAP2 SWAP1 PUSH2 0x2B3A JUMP JUMPDEST DUP4 PUSH1 0x0 SLOAD PUSH2 0x12D8 SWAP2 SWAP1 PUSH2 0x31B4 JUMP JUMPDEST PUSH2 0x12E2 SWAP2 SWAP1 PUSH2 0x323D JUMP JUMPDEST SWAP1 POP PUSH32 0x0 PUSH20 0xFFFFFFFFFFFFFFFFFFFFFFFFFFFFFFFFFFFFFFFF AND PUSH4 0x23B872DD CALLER ADDRESS DUP8 PUSH1 0x40 MLOAD DUP5 PUSH4 0xFFFFFFFF AND PUSH1 0xE0 SHL DUP2 MSTORE PUSH1 0x4 ADD PUSH2 0x1341 SWAP4 SWAP3 SWAP2 SWAP1 PUSH2 0x3111 JUMP JUMPDEST PUSH1 0x20 PUSH1 0x40 MLOAD DUP1 DUP4 SUB DUP2 PUSH1 0x0 DUP8 GAS CALL ISZERO DUP1 ISZERO PUSH2 0x1360 JUMPI RETURNDATASIZE PUSH1 0x0 DUP1 RETURNDATACOPY RETURNDATASIZE PUSH1 0x0 REVERT JUMPDEST POP POP POP POP PUSH1 0x40 MLOAD RETURNDATASIZE PUSH1 0x1F NOT PUSH1 0x1F DUP3 ADD AND DUP3 ADD DUP1 PUSH1 0x40 MSTORE POP DUP2 ADD SWAP1 PUSH2 0x1384 SWAP2 SWAP1 PUSH2 0x2D82 JUMP JUMPDEST POP PUSH32 0x0 PUSH20 0xFFFFFFFFFFFFFFFFFFFFFFFFFFFFFFFFFFFFFFFF AND PUSH4 0xA9059CBB CALLER DUP4 PUSH1 0x40 MLOAD DUP4 PUSH4 0xFFFFFFFF AND PUSH1 0xE0 SHL DUP2 MSTORE PUSH1 0x4 ADD PUSH2 0x13E0 SWAP3 SWAP2 SWAP1 PUSH2 0x2D21 JUMP JUMPDEST PUSH1 0x20 PUSH1 0x40 MLOAD DUP1 DUP4 SUB DUP2 PUSH1 0x0 DUP8 GAS CALL ISZERO DUP1 ISZERO PUSH2 0x13FF JUMPI RETURNDATASIZE PUSH1 0x0 DUP1 RETURNDATACOPY RETURNDATASIZE PUSH1 0x0 REVERT JUMPDEST POP POP POP POP PUSH1 0x40 MLOAD RETURNDATASIZE PUSH1 0x1F NOT PUSH1 0x1F DUP3 ADD AND DUP3 ADD DUP1 PUSH1 0x40 MSTORE POP DUP2 ADD SWAP1 PUSH2 0x1423 SWAP2 SWAP1 PUSH2 0x2D82 JUMP JUMPDEST POP PUSH2 0x142D DUP3 PUSH2 0x25E3 JUMP JUMPDEST PUSH32 0xC92E7E3E70B6A315E0FE9B16A23E8B359512423950D2748333641A9D5DCFA095 DUP5 DUP3 PUSH32 0x0 PUSH20 0xFFFFFFFFFFFFFFFFFFFFFFFFFFFFFFFFFFFFFFFF AND PUSH4 0x6FDDE03 PUSH1 0x40 MLOAD DUP2 PUSH4 0xFFFFFFFF AND PUSH1 0xE0 SHL DUP2 MSTORE PUSH1 0x4 ADD PUSH1 0x0 PUSH1 0x40 MLOAD DUP1 DUP4 SUB DUP2 DUP7 GAS STATICCALL ISZERO DUP1 ISZERO PUSH2 0x14BB JUMPI RETURNDATASIZE PUSH1 0x0 DUP1 RETURNDATACOPY RETURNDATASIZE PUSH1 0x0 REVERT JUMPDEST POP POP POP POP PUSH1 0x40 MLOAD RETURNDATASIZE PUSH1 0x0 DUP3 RETURNDATACOPY RETURNDATASIZE PUSH1 0x1F NOT PUSH1 0x1F DUP3 ADD AND DUP3 ADD DUP1 PUSH1 0x40 MSTORE POP DUP2 ADD SWAP1 PUSH2 0x14E4 SWAP2 SWAP1 PUSH2 0x2F7C JUMP JUMPDEST PUSH32 0x0 PUSH20 0xFFFFFFFFFFFFFFFFFFFFFFFFFFFFFFFFFFFFFFFF AND PUSH4 0x6FDDE03 PUSH1 0x40 MLOAD DUP2 PUSH4 0xFFFFFFFF AND PUSH1 0xE0 SHL DUP2 MSTORE PUSH1 0x4 ADD PUSH1 0x0 PUSH1 0x40 MLOAD DUP1 DUP4 SUB DUP2 DUP7 GAS STATICCALL ISZERO DUP1 ISZERO PUSH2 0x154F JUMPI RETURNDATASIZE PUSH1 0x0 DUP1 RETURNDATACOPY RETURNDATASIZE PUSH1 0x0 REVERT JUMPDEST POP POP POP POP PUSH1 0x40 MLOAD RETURNDATASIZE PUSH1 0x0 DUP3 RETURNDATACOPY RETURNDATASIZE PUSH1 0x1F NOT PUSH1 0x1F DUP3 ADD AND DUP3 ADD DUP1 PUSH1 0x40 MSTORE POP DUP2 ADD SWAP1 PUSH2 0x1578 SWAP2 SWAP1 PUSH2 0x2F7C JUMP JUMPDEST PUSH1 0x40 MLOAD PUSH2 0x1588 SWAP5 SWAP4 SWAP3 SWAP2 SWAP1 PUSH2 0x326E JUMP JUMPDEST PUSH1 0x40 MLOAD DUP1 SWAP2 SUB SWAP1 LOG1 POP POP POP POP JUMP JUMPDEST PUSH1 0x0 PUSH1 0x6 PUSH1 0x0 CALLER PUSH20 0xFFFFFFFFFFFFFFFFFFFFFFFFFFFFFFFFFFFFFFFF AND PUSH20 0xFFFFFFFFFFFFFFFFFFFFFFFFFFFFFFFFFFFFFFFF AND DUP2 MSTORE PUSH1 0x20 ADD SWAP1 DUP2 MSTORE PUSH1 0x20 ADD PUSH1 0x0 KECCAK256 SLOAD GT PUSH2 0x1618 JUMPI PUSH1 0x40 MLOAD PUSH32 0x8C379A000000000000000000000000000000000000000000000000000000000 DUP2 MSTORE PUSH1 0x4 ADD PUSH2 0x160F SWAP1 PUSH2 0x3194 JUMP JUMPDEST PUSH1 0x40 MLOAD DUP1 SWAP2 SUB SWAP1 REVERT JUMPDEST PUSH1 0x0 PUSH1 0x6 PUSH1 0x0 CALLER PUSH20 0xFFFFFFFFFFFFFFFFFFFFFFFFFFFFFFFFFFFFFFFF AND PUSH20 0xFFFFFFFFFFFFFFFFFFFFFFFFFFFFFFFFFFFFFFFF AND DUP2 MSTORE PUSH1 0x20 ADD SWAP1 DUP2 MSTORE PUSH1 0x20 ADD PUSH1 0x0 KECCAK256 SLOAD SWAP1 POP PUSH1 0x0 PUSH1 0x6 PUSH1 0x0 CALLER PUSH20 0xFFFFFFFFFFFFFFFFFFFFFFFFFFFFFFFFFFFFFFFF AND PUSH20 0xFFFFFFFFFFFFFFFFFFFFFFFFFFFFFFFFFFFFFFFF AND DUP2 MSTORE PUSH1 0x20 ADD SWAP1 DUP2 MSTORE PUSH1 0x20 ADD PUSH1 0x0 KECCAK256 DUP2 SWAP1 SSTORE POP PUSH32 0x0 PUSH20 0xFFFFFFFFFFFFFFFFFFFFFFFFFFFFFFFFFFFFFFFF AND PUSH4 0xA9059CBB CALLER DUP4 PUSH1 0x40 MLOAD DUP4 PUSH4 0xFFFFFFFF AND PUSH1 0xE0 SHL DUP2 MSTORE PUSH1 0x4 ADD PUSH2 0x16FC SWAP3 SWAP2 SWAP1 PUSH2 0x2D21 JUMP JUMPDEST PUSH1 0x20 PUSH1 0x40 MLOAD DUP1 DUP4 SUB DUP2 PUSH1 0x0 DUP8 GAS CALL ISZERO DUP1 ISZERO PUSH2 0x171B JUMPI RETURNDATASIZE PUSH1 0x0 DUP1 RETURNDATACOPY RETURNDATASIZE PUSH1 0x0 REVERT JUMPDEST POP POP POP POP PUSH1 0x40 MLOAD RETURNDATASIZE PUSH1 0x1F NOT PUSH1 0x1F DUP3 ADD AND DUP3 ADD DUP1 PUSH1 0x40 MSTORE POP DUP2 ADD SWAP1 PUSH2 0x173F SWAP2 SWAP1 PUSH2 0x2D82 JUMP JUMPDEST POP POP JUMP JUMPDEST DUP1 PUSH32 0x0 PUSH20 0xFFFFFFFFFFFFFFFFFFFFFFFFFFFFFFFFFFFFFFFF AND PUSH4 0x70A08231 CALLER PUSH1 0x40 MLOAD DUP3 PUSH4 0xFFFFFFFF AND PUSH1 0xE0 SHL DUP2 MSTORE PUSH1 0x4 ADD PUSH2 0x179D SWAP2 SWAP1 PUSH2 0x2A44 JUMP JUMPDEST PUSH1 0x20 PUSH1 0x40 MLOAD DUP1 DUP4 SUB DUP2 DUP7 GAS STATICCALL ISZERO DUP1 ISZERO PUSH2 0x17BA JUMPI RETURNDATASIZE PUSH1 0x0 DUP1 RETURNDATACOPY RETURNDATASIZE PUSH1 0x0 REVERT JUMPDEST POP POP POP POP PUSH1 0x40 MLOAD RETURNDATASIZE PUSH1 0x1F NOT PUSH1 0x1F DUP3 ADD AND DUP3 ADD DUP1 PUSH1 0x40 MSTORE POP DUP2 ADD SWAP1 PUSH2 0x17DE SWAP2 SWAP1 PUSH2 0x2CF4 JUMP JUMPDEST LT ISZERO PUSH2 0x181F JUMPI PUSH1 0x40 MLOAD PUSH32 0x8C379A000000000000000000000000000000000000000000000000000000000 DUP2 MSTORE PUSH1 0x4 ADD PUSH2 0x1816 SWAP1 PUSH2 0x3085 JUMP JUMPDEST PUSH1 0x40 MLOAD DUP1 SWAP2 SUB SWAP1 REVERT JUMPDEST PUSH1 0x0 DUP2 GT PUSH2 0x1862 JUMPI PUSH1 0x40 MLOAD PUSH32 0x8C379A000000000000000000000000000000000000000000000000000000000 DUP2 MSTORE PUSH1 0x4 ADD PUSH2 0x1859 SWAP1 PUSH2 0x30F1 JUMP JUMPDEST PUSH1 0x40 MLOAD DUP1 SWAP2 SUB SWAP1 REVERT JUMPDEST PUSH1 0x0 PUSH2 0x3E8 PUSH2 0x3E6 DUP4 PUSH2 0x1875 SWAP2 SWAP1 PUSH2 0x31B4 JUMP JUMPDEST PUSH2 0x187F SWAP2 SWAP1 PUSH2 0x323D JUMP JUMPDEST SWAP1 POP PUSH1 0x0 DUP2 DUP4 PUSH2 0x188F SWAP2 SWAP1 PUSH2 0x2DAF JUMP JUMPDEST SWAP1 POP PUSH1 0x0 DUP3 PUSH1 0x0 SLOAD PUSH2 0x18A1 SWAP2 SWAP1 PUSH2 0x2B3A JUMP JUMPDEST DUP4 PUSH1 0x1 SLOAD PUSH2 0x18AF SWAP2 SWAP1 PUSH2 0x31B4 JUMP JUMPDEST PUSH2 0x18B9 SWAP2 SWAP1 PUSH2 0x323D JUMP JUMPDEST SWAP1 POP PUSH32 0x0 PUSH20 0xFFFFFFFFFFFFFFFFFFFFFFFFFFFFFFFFFFFFFFFF AND PUSH4 0x23B872DD CALLER ADDRESS DUP8 PUSH1 0x40 MLOAD DUP5 PUSH4 0xFFFFFFFF AND PUSH1 0xE0 SHL DUP2 MSTORE PUSH1 0x4 ADD PUSH2 0x1918 SWAP4 SWAP3 SWAP2 SWAP1 PUSH2 0x3111 JUMP JUMPDEST PUSH1 0x20 PUSH1 0x40 MLOAD DUP1 DUP4 SUB DUP2 PUSH1 0x0 DUP8 GAS CALL ISZERO DUP1 ISZERO PUSH2 0x1937 JUMPI RETURNDATASIZE PUSH1 0x0 DUP1 RETURNDATACOPY RETURNDATASIZE PUSH1 0x0 REVERT JUMPDEST POP POP POP POP PUSH1 0x40 MLOAD RETURNDATASIZE PUSH1 0x1F NOT PUSH1 0x1F DUP3 ADD AND DUP3 ADD DUP1 PUSH1 0x40 MSTORE POP DUP2 ADD SWAP1 PUSH2 0x195B SWAP2 SWAP1 PUSH2 0x2D82 JUMP JUMPDEST POP PUSH32 0x0 PUSH20 0xFFFFFFFFFFFFFFFFFFFFFFFFFFFFFFFFFFFFFFFF AND PUSH4 0xA9059CBB CALLER DUP4 PUSH1 0x40 MLOAD DUP4 PUSH4 0xFFFFFFFF AND PUSH1 0xE0 SHL DUP2 MSTORE PUSH1 0x4 ADD PUSH2 0x19B7 SWAP3 SWAP2 SWAP1 PUSH2 0x2D21 JUMP JUMPDEST PUSH1 0x20 PUSH1 0x40 MLOAD DUP1 DUP4 SUB DUP2 PUSH1 0x0 DUP8 GAS CALL ISZERO DUP1 ISZERO PUSH2 0x19D6 JUMPI RETURNDATASIZE PUSH1 0x0 DUP1 RETURNDATACOPY RETURNDATASIZE PUSH1 0x0 REVERT JUMPDEST POP POP POP POP PUSH1 0x40 MLOAD RETURNDATASIZE PUSH1 0x1F NOT PUSH1 0x1F DUP3 ADD AND DUP3 ADD DUP1 PUSH1 0x40 MSTORE POP DUP2 ADD SWAP1 PUSH2 0x19FA SWAP2 SWAP1 PUSH2 0x2D82 JUMP JUMPDEST POP PUSH2 0x1A04 DUP3 PUSH2 0x2739 JUMP JUMPDEST PUSH32 0xC92E7E3E70B6A315E0FE9B16A23E8B359512423950D2748333641A9D5DCFA095 DUP5 DUP3 PUSH32 0x0 PUSH20 0xFFFFFFFFFFFFFFFFFFFFFFFFFFFFFFFFFFFFFFFF AND PUSH4 0x6FDDE03 PUSH1 0x40 MLOAD DUP2 PUSH4 0xFFFFFFFF AND PUSH1 0xE0 SHL DUP2 MSTORE PUSH1 0x4 ADD PUSH1 0x0 PUSH1 0x40 MLOAD DUP1 DUP4 SUB DUP2 DUP7 GAS STATICCALL ISZERO DUP1 ISZERO PUSH2 0x1A92 JUMPI RETURNDATASIZE PUSH1 0x0 DUP1 RETURNDATACOPY RETURNDATASIZE PUSH1 0x0 REVERT JUMPDEST POP POP POP POP PUSH1 0x40 MLOAD RETURNDATASIZE PUSH1 0x0 DUP3 RETURNDATACOPY RETURNDATASIZE PUSH1 0x1F NOT PUSH1 0x1F DUP3 ADD AND DUP3 ADD DUP1 PUSH1 0x40 MSTORE POP DUP2 ADD SWAP1 PUSH2 0x1ABB SWAP2 SWAP1 PUSH2 0x2F7C JUMP JUMPDEST PUSH32 0x0 PUSH20 0xFFFFFFFFFFFFFFFFFFFFFFFFFFFFFFFFFFFFFFFF AND PUSH4 0x6FDDE03 PUSH1 0x40 MLOAD DUP2 PUSH4 0xFFFFFFFF AND PUSH1 0xE0 SHL DUP2 MSTORE PUSH1 0x4 ADD PUSH1 0x0 PUSH1 0x40 MLOAD DUP1 DUP4 SUB DUP2 DUP7 GAS STATICCALL ISZERO DUP1 ISZERO PUSH2 0x1B26 JUMPI RETURNDATASIZE PUSH1 0x0 DUP1 RETURNDATACOPY RETURNDATASIZE PUSH1 0x0 REVERT JUMPDEST POP POP POP POP PUSH1 0x40 MLOAD RETURNDATASIZE PUSH1 0x0 DUP3 RETURNDATACOPY RETURNDATASIZE PUSH1 0x1F NOT PUSH1 0x1F DUP3 ADD AND DUP3 ADD DUP1 PUSH1 0x40 MSTORE POP DUP2 ADD SWAP1 PUSH2 0x1B4F SWAP2 SWAP1 PUSH2 0x2F7C JUMP JUMPDEST PUSH1 0x40 MLOAD PUSH2 0x1B5F SWAP5 SWAP4 SWAP3 SWAP2 SWAP1 PUSH2 0x326E JUMP JUMPDEST PUSH1 0x40 MLOAD DUP1 SWAP2 SUB SWAP1 LOG1 POP POP POP POP JUMP JUMPDEST PUSH1 0x0 PUSH32 0x0 PUSH20 0xFFFFFFFFFFFFFFFFFFFFFFFFFFFFFFFFFFFFFFFF AND PUSH4 0x70A08231 ADDRESS PUSH1 0x40 MLOAD DUP3 PUSH4 0xFFFFFFFF AND PUSH1 0xE0 SHL DUP2 MSTORE PUSH1 0x4 ADD PUSH2 0x1BC8 SWAP2 SWAP1 PUSH2 0x2A44 JUMP JUMPDEST PUSH1 0x20 PUSH1 0x40 MLOAD DUP1 DUP4 SUB DUP2 DUP7 GAS STATICCALL ISZERO DUP1 ISZERO PUSH2 0x1BE5 JUMPI RETURNDATASIZE PUSH1 0x0 DUP1 RETURNDATACOPY RETURNDATASIZE PUSH1 0x0 REVERT JUMPDEST POP POP POP POP PUSH1 0x40 MLOAD RETURNDATASIZE PUSH1 0x1F NOT PUSH1 0x1F DUP3 ADD AND DUP3 ADD DUP1 PUSH1 0x40 MSTORE POP DUP2 ADD SWAP1 PUSH2 0x1C09 SWAP2 SWAP1 PUSH2 0x2CF4 JUMP JUMPDEST SWAP1 POP SWAP1 JUMP JUMPDEST DUP1 PUSH1 0x2 PUSH1 0x0 CALLER PUSH20 0xFFFFFFFFFFFFFFFFFFFFFFFFFFFFFFFFFFFFFFFF AND PUSH20 0xFFFFFFFFFFFFFFFFFFFFFFFFFFFFFFFFFFFFFFFF AND DUP2 MSTORE PUSH1 0x20 ADD SWAP1 DUP2 MSTORE PUSH1 0x20 ADD PUSH1 0x0 KECCAK256 SLOAD LT ISZERO PUSH2 0x1C90 JUMPI PUSH1 0x40 MLOAD PUSH32 0x8C379A000000000000000000000000000000000000000000000000000000000 DUP2 MSTORE PUSH1 0x4 ADD PUSH2 0x1C87 SWAP1 PUSH2 0x2C53 JUMP JUMPDEST PUSH1 0x40 MLOAD DUP1 SWAP2 SUB SWAP1 REVERT JUMPDEST PUSH1 0x0 DUP2 GT PUSH2 0x1CD3 JUMPI PUSH1 0x40 MLOAD PUSH32 0x8C379A000000000000000000000000000000000000000000000000000000000 DUP2 MSTORE PUSH1 0x4 ADD PUSH2 0x1CCA SWAP1 PUSH2 0x2CBF JUMP JUMPDEST PUSH1 0x40 MLOAD DUP1 SWAP2 SUB SWAP1 REVERT JUMPDEST PUSH1 0x0 PUSH32 0x0 PUSH20 0xFFFFFFFFFFFFFFFFFFFFFFFFFFFFFFFFFFFFFFFF AND PUSH4 0x70A08231 ADDRESS PUSH1 0x40 MLOAD DUP3 PUSH4 0xFFFFFFFF AND PUSH1 0xE0 SHL DUP2 MSTORE PUSH1 0x4 ADD PUSH2 0x1D2E SWAP2 SWAP1 PUSH2 0x2A44 JUMP JUMPDEST PUSH1 0x20 PUSH1 0x40 MLOAD DUP1 DUP4 SUB DUP2 DUP7 GAS STATICCALL ISZERO DUP1 ISZERO PUSH2 0x1D4B JUMPI RETURNDATASIZE PUSH1 0x0 DUP1 RETURNDATACOPY RETURNDATASIZE PUSH1 0x0 REVERT JUMPDEST POP POP POP POP PUSH1 0x40 MLOAD RETURNDATASIZE PUSH1 0x1F NOT PUSH1 0x1F DUP3 ADD AND DUP3 ADD DUP1 PUSH1 0x40 MSTORE POP DUP2 ADD SWAP1 PUSH2 0x1D6F SWAP2 SWAP1 PUSH2 0x2CF4 JUMP JUMPDEST SWAP1 POP PUSH32 0x0 PUSH20 0xFFFFFFFFFFFFFFFFFFFFFFFFFFFFFFFFFFFFFFFF AND PUSH4 0xA9059CBB CALLER DUP5 PUSH1 0x40 MLOAD DUP4 PUSH4 0xFFFFFFFF AND PUSH1 0xE0 SHL DUP2 MSTORE PUSH1 0x4 ADD PUSH2 0x1DCC SWAP3 SWAP2 SWAP1 PUSH2 0x2D21 JUMP JUMPDEST PUSH1 0x20 PUSH1 0x40 MLOAD DUP1 DUP4 SUB DUP2 PUSH1 0x0 DUP8 GAS CALL ISZERO DUP1 ISZERO PUSH2 0x1DEB JUMPI RETURNDATASIZE PUSH1 0x0 DUP1 RETURNDATACOPY RETURNDATASIZE PUSH1 0x0 REVERT JUMPDEST POP POP POP POP PUSH1 0x40 MLOAD RETURNDATASIZE PUSH1 0x1F NOT PUSH1 0x1F DUP3 ADD AND DUP3 ADD DUP1 PUSH1 0x40 MSTORE POP DUP2 ADD SWAP1 PUSH2 0x1E0F SWAP2 SWAP1 PUSH2 0x2D82 JUMP JUMPDEST POP DUP2 PUSH1 0x0 DUP1 DUP3 DUP3 SLOAD PUSH2 0x1E21 SWAP2 SWAP1 PUSH2 0x2DAF JUMP JUMPDEST SWAP3 POP POP DUP2 SWAP1 SSTORE POP DUP2 PUSH1 0x2 PUSH1 0x0 CALLER PUSH20 0xFFFFFFFFFFFFFFFFFFFFFFFFFFFFFFFFFFFFFFFF AND PUSH20 0xFFFFFFFFFFFFFFFFFFFFFFFFFFFFFFFFFFFFFFFF AND DUP2 MSTORE PUSH1 0x20 ADD SWAP1 DUP2 MSTORE PUSH1 0x20 ADD PUSH1 0x0 KECCAK256 PUSH1 0x0 DUP3 DUP3 SLOAD PUSH2 0x1E77 SWAP2 SWAP1 PUSH2 0x2DAF JUMP JUMPDEST SWAP3 POP POP DUP2 SWAP1 SSTORE POP DUP2 DUP2 PUSH2 0x1E8A SWAP2 SWAP1 PUSH2 0x2DAF JUMP JUMPDEST PUSH32 0x0 PUSH20 0xFFFFFFFFFFFFFFFFFFFFFFFFFFFFFFFFFFFFFFFF AND PUSH4 0x70A08231 ADDRESS PUSH1 0x40 MLOAD DUP3 PUSH4 0xFFFFFFFF AND PUSH1 0xE0 SHL DUP2 MSTORE PUSH1 0x4 ADD PUSH2 0x1EE3 SWAP2 SWAP1 PUSH2 0x2A44 JUMP JUMPDEST PUSH1 0x20 PUSH1 0x40 MLOAD DUP1 DUP4 SUB DUP2 DUP7 GAS STATICCALL ISZERO DUP1 ISZERO PUSH2 0x1F00 JUMPI RETURNDATASIZE PUSH1 0x0 DUP1 RETURNDATACOPY RETURNDATASIZE PUSH1 0x0 REVERT JUMPDEST POP POP POP POP PUSH1 0x40 MLOAD RETURNDATASIZE PUSH1 0x1F NOT PUSH1 0x1F DUP3 ADD AND DUP3 ADD DUP1 PUSH1 0x40 MSTORE POP DUP2 ADD SWAP1 PUSH2 0x1F24 SWAP2 SWAP1 PUSH2 0x2CF4 JUMP JUMPDEST EQ PUSH2 0x1F32 JUMPI PUSH2 0x1F31 PUSH2 0x2DE3 JUMP JUMPDEST JUMPDEST PUSH32 0xB659D979A9EEBBDF7D424DFA6AABDA43BDEDF0134D00557D804F960517B08572 DUP3 PUSH32 0x0 PUSH20 0xFFFFFFFFFFFFFFFFFFFFFFFFFFFFFFFFFFFFFFFF AND PUSH4 0x6FDDE03 PUSH1 0x40 MLOAD DUP2 PUSH4 0xFFFFFFFF AND PUSH1 0xE0 SHL DUP2 MSTORE PUSH1 0x4 ADD PUSH1 0x0 PUSH1 0x40 MLOAD DUP1 DUP4 SUB DUP2 DUP7 GAS STATICCALL ISZERO DUP1 ISZERO PUSH2 0x1FBF JUMPI RETURNDATASIZE PUSH1 0x0 DUP1 RETURNDATACOPY RETURNDATASIZE PUSH1 0x0 REVERT JUMPDEST POP POP POP POP PUSH1 0x40 MLOAD RETURNDATASIZE PUSH1 0x0 DUP3 RETURNDATACOPY RETURNDATASIZE PUSH1 0x1F NOT PUSH1 0x1F DUP3 ADD AND DUP3 ADD DUP1 PUSH1 0x40 MSTORE POP DUP2 ADD SWAP1 PUSH2 0x1FE8 SWAP2 SWAP1 PUSH2 0x2F7C JUMP JUMPDEST PUSH1 0x40 MLOAD PUSH2 0x1FF6 SWAP3 SWAP2 SWAP1 PUSH2 0x3009 JUMP JUMPDEST PUSH1 0x40 MLOAD DUP1 SWAP2 SUB SWAP1 LOG1 POP POP JUMP JUMPDEST PUSH32 0x0 DUP2 JUMP JUMPDEST PUSH1 0x5 DUP2 DUP2 SLOAD DUP2 LT PUSH2 0x2036 JUMPI PUSH1 0x0 DUP1 REVERT JUMPDEST SWAP1 PUSH1 0x0 MSTORE PUSH1 0x20 PUSH1 0x0 KECCAK256 ADD PUSH1 0x0 SWAP2 POP SLOAD SWAP1 PUSH2 0x100 EXP SWAP1 DIV PUSH20 0xFFFFFFFFFFFFFFFFFFFFFFFFFFFFFFFFFFFFFFFF AND DUP2 JUMP JUMPDEST DUP1 PUSH32 0x0 PUSH20 0xFFFFFFFFFFFFFFFFFFFFFFFFFFFFFFFFFFFFFFFF AND PUSH4 0x70A08231 CALLER PUSH1 0x40 MLOAD DUP3 PUSH4 0xFFFFFFFF AND PUSH1 0xE0 SHL DUP2 MSTORE PUSH1 0x4 ADD PUSH2 0x20BF SWAP2 SWAP1 PUSH2 0x2A44 JUMP JUMPDEST PUSH1 0x20 PUSH1 0x40 MLOAD DUP1 DUP4 SUB DUP2 DUP7 GAS STATICCALL ISZERO DUP1 ISZERO PUSH2 0x20DC JUMPI RETURNDATASIZE PUSH1 0x0 DUP1 RETURNDATACOPY RETURNDATASIZE PUSH1 0x0 REVERT JUMPDEST POP POP POP POP PUSH1 0x40 MLOAD RETURNDATASIZE PUSH1 0x1F NOT PUSH1 0x1F DUP3 ADD AND DUP3 ADD DUP1 PUSH1 0x40 MSTORE POP DUP2 ADD SWAP1 PUSH2 0x2100 SWAP2 SWAP1 PUSH2 0x2CF4 JUMP JUMPDEST LT ISZERO PUSH2 0x2141 JUMPI PUSH1 0x40 MLOAD PUSH32 0x8C379A000000000000000000000000000000000000000000000000000000000 DUP2 MSTORE PUSH1 0x4 ADD PUSH2 0x2138 SWAP1 PUSH2 0x3085 JUMP JUMPDEST PUSH1 0x40 MLOAD DUP1 SWAP2 SUB SWAP1 REVERT JUMPDEST PUSH1 0x0 DUP2 GT PUSH2 0x2184 JUMPI PUSH1 0x40 MLOAD PUSH32 0x8C379A000000000000000000000000000000000000000000000000000000000 DUP2 MSTORE PUSH1 0x4 ADD PUSH2 0x217B SWAP1 PUSH2 0x30F1 JUMP JUMPDEST PUSH1 0x40 MLOAD DUP1 SWAP2 SUB SWAP1 REVERT JUMPDEST PUSH1 0x0 PUSH32 0x0 PUSH20 0xFFFFFFFFFFFFFFFFFFFFFFFFFFFFFFFFFFFFFFFF AND PUSH4 0x70A08231 ADDRESS PUSH1 0x40 MLOAD DUP3 PUSH4 0xFFFFFFFF AND PUSH1 0xE0 SHL DUP2 MSTORE PUSH1 0x4 ADD PUSH2 0x21DF SWAP2 SWAP1 PUSH2 0x2A44 JUMP JUMPDEST PUSH1 0x20 PUSH1 0x40 MLOAD DUP1 DUP4 SUB DUP2 DUP7 GAS STATICCALL ISZERO DUP1 ISZERO PUSH2 0x21FC JUMPI RETURNDATASIZE PUSH1 0x0 DUP1 RETURNDATACOPY RETURNDATASIZE PUSH1 0x0 REVERT JUMPDEST POP POP POP POP PUSH1 0x40 MLOAD RETURNDATASIZE PUSH1 0x1F NOT PUSH1 0x1F DUP3 ADD AND DUP3 ADD DUP1 PUSH1 0x40 MSTORE POP DUP2 ADD SWAP1 PUSH2 0x2220 SWAP2 SWAP1 PUSH2 0x2CF4 JUMP JUMPDEST SWAP1 POP PUSH32 0x0 PUSH20 0xFFFFFFFFFFFFFFFFFFFFFFFFFFFFFFFFFFFFFFFF AND PUSH4 0x23B872DD CALLER ADDRESS DUP6 PUSH1 0x40 MLOAD DUP5 PUSH4 0xFFFFFFFF AND PUSH1 0xE0 SHL DUP2 MSTORE PUSH1 0x4 ADD PUSH2 0x227F SWAP4 SWAP3 SWAP2 SWAP1 PUSH2 0x3111 JUMP JUMPDEST PUSH1 0x20 PUSH1 0x40 MLOAD DUP1 DUP4 SUB DUP2 PUSH1 0x0 DUP8 GAS CALL ISZERO DUP1 ISZERO PUSH2 0x229E JUMPI RETURNDATASIZE PUSH1 0x0 DUP1 RETURNDATACOPY RETURNDATASIZE PUSH1 0x0 REVERT JUMPDEST POP POP POP POP PUSH1 0x40 MLOAD RETURNDATASIZE PUSH1 0x1F NOT PUSH1 0x1F DUP3 ADD AND DUP3 ADD DUP1 PUSH1 0x40 MSTORE POP DUP2 ADD SWAP1 PUSH2 0x22C2 SWAP2 SWAP1 PUSH2 0x2D82 JUMP JUMPDEST POP DUP2 PUSH1 0x0 DUP1 DUP3 DUP3 SLOAD PUSH2 0x22D4 SWAP2 SWAP1 PUSH2 0x2B3A JUMP JUMPDEST SWAP3 POP POP DUP2 SWAP1 SSTORE POP DUP2 PUSH1 0x2 PUSH1 0x0 CALLER PUSH20 0xFFFFFFFFFFFFFFFFFFFFFFFFFFFFFFFFFFFFFFFF AND PUSH20 0xFFFFFFFFFFFFFFFFFFFFFFFFFFFFFFFFFFFFFFFF AND DUP2 MSTORE PUSH1 0x20 ADD SWAP1 DUP2 MSTORE PUSH1 0x20 ADD PUSH1 0x0 KECCAK256 PUSH1 0x0 DUP3 DUP3 SLOAD PUSH2 0x232A SWAP2 SWAP1 PUSH2 0x2B3A JUMP JUMPDEST SWAP3 POP POP DUP2 SWAP1 SSTORE POP PUSH1 0x4 CALLER SWAP1 DUP1 PUSH1 0x1 DUP2 SLOAD ADD DUP1 DUP3 SSTORE DUP1 SWAP2 POP POP PUSH1 0x1 SWAP1 SUB SWAP1 PUSH1 0x0 MSTORE PUSH1 0x20 PUSH1 0x0 KECCAK256 ADD PUSH1 0x0 SWAP1 SWAP2 SWAP1 SWAP2 SWAP1 SWAP2 PUSH2 0x100 EXP DUP2 SLOAD DUP2 PUSH20 0xFFFFFFFFFFFFFFFFFFFFFFFFFFFFFFFFFFFFFFFF MUL NOT AND SWAP1 DUP4 PUSH20 0xFFFFFFFFFFFFFFFFFFFFFFFFFFFFFFFFFFFFFFFF AND MUL OR SWAP1 SSTORE POP DUP2 DUP2 PUSH2 0x23A0 SWAP2 SWAP1 PUSH2 0x2B3A JUMP JUMPDEST PUSH32 0x0 PUSH20 0xFFFFFFFFFFFFFFFFFFFFFFFFFFFFFFFFFFFFFFFF AND PUSH4 0x70A08231 ADDRESS PUSH1 0x40 MLOAD DUP3 PUSH4 0xFFFFFFFF AND PUSH1 0xE0 SHL DUP2 MSTORE PUSH1 0x4 ADD PUSH2 0x23F9 SWAP2 SWAP1 PUSH2 0x2A44 JUMP JUMPDEST PUSH1 0x20 PUSH1 0x40 MLOAD DUP1 DUP4 SUB DUP2 DUP7 GAS STATICCALL ISZERO DUP1 ISZERO PUSH2 0x2416 JUMPI RETURNDATASIZE PUSH1 0x0 DUP1 RETURNDATACOPY RETURNDATASIZE PUSH1 0x0 REVERT JUMPDEST POP POP POP POP PUSH1 0x40 MLOAD RETURNDATASIZE PUSH1 0x1F NOT PUSH1 0x1F DUP3 ADD AND DUP3 ADD DUP1 PUSH1 0x40 MSTORE POP DUP2 ADD SWAP1 PUSH2 0x243A SWAP2 SWAP1 PUSH2 0x2CF4 JUMP JUMPDEST EQ PUSH2 0x2448 JUMPI PUSH2 0x2447 PUSH2 0x2DE3 JUMP JUMPDEST JUMPDEST PUSH32 0x2A89A9867BA3F0BD8D280793BE9BC1D599E2063CF3E4DD8E7A321D907047982C DUP3 PUSH32 0x0 PUSH20 0xFFFFFFFFFFFFFFFFFFFFFFFFFFFFFFFFFFFFFFFF AND PUSH4 0x6FDDE03 PUSH1 0x40 MLOAD DUP2 PUSH4 0xFFFFFFFF AND PUSH1 0xE0 SHL DUP2 MSTORE PUSH1 0x4 ADD PUSH1 0x0 PUSH1 0x40 MLOAD DUP1 DUP4 SUB DUP2 DUP7 GAS STATICCALL ISZERO DUP1 ISZERO PUSH2 0x24D5 JUMPI RETURNDATASIZE PUSH1 0x0 DUP1 RETURNDATACOPY RETURNDATASIZE PUSH1 0x0 REVERT JUMPDEST POP POP POP POP PUSH1 0x40 MLOAD RETURNDATASIZE PUSH1 0x0 DUP3 RETURNDATACOPY RETURNDATASIZE PUSH1 0x1F NOT PUSH1 0x1F DUP3 ADD AND DUP3 ADD DUP1 PUSH1 0x40 MSTORE POP DUP2 ADD SWAP1 PUSH2 0x24FE SWAP2 SWAP1 PUSH2 0x2F7C JUMP JUMPDEST PUSH1 0x40 MLOAD PUSH2 0x250C SWAP3 SWAP2 SWAP1 PUSH2 0x3009 JUMP JUMPDEST PUSH1 0x40 MLOAD DUP1 SWAP2 SUB SWAP1 LOG1 POP POP JUMP JUMPDEST PUSH1 0x0 SLOAD DUP2 JUMP JUMPDEST PUSH32 0x0 DUP2 JUMP JUMPDEST PUSH1 0x0 PUSH32 0x0 PUSH20 0xFFFFFFFFFFFFFFFFFFFFFFFFFFFFFFFFFFFFFFFF AND PUSH4 0x70A08231 ADDRESS PUSH1 0x40 MLOAD DUP3 PUSH4 0xFFFFFFFF AND PUSH1 0xE0 SHL DUP2 MSTORE PUSH1 0x4 ADD PUSH2 0x259D SWAP2 SWAP1 PUSH2 0x2A44 JUMP JUMPDEST PUSH1 0x20 PUSH1 0x40 MLOAD DUP1 DUP4 SUB DUP2 DUP7 GAS STATICCALL ISZERO DUP1 ISZERO PUSH2 0x25BA JUMPI RETURNDATASIZE PUSH1 0x0 DUP1 RETURNDATACOPY RETURNDATASIZE PUSH1 0x0 REVERT JUMPDEST POP POP POP POP PUSH1 0x40 MLOAD RETURNDATASIZE PUSH1 0x1F NOT PUSH1 0x1F DUP3 ADD AND DUP3 ADD DUP1 PUSH1 0x40 MSTORE POP DUP2 ADD SWAP1 PUSH2 0x25DE SWAP2 SWAP1 PUSH2 0x2CF4 JUMP JUMPDEST SWAP1 POP SWAP1 JUMP JUMPDEST PUSH1 0x0 JUMPDEST PUSH1 0x4 DUP1 SLOAD SWAP1 POP DUP2 LT ISZERO PUSH2 0x2735 JUMPI PUSH1 0x0 DUP3 PUSH1 0x1 SLOAD PUSH1 0x3 PUSH1 0x0 PUSH1 0x5 DUP7 DUP2 SLOAD DUP2 LT PUSH2 0x2611 JUMPI PUSH2 0x2610 PUSH2 0x2ADC JUMP JUMPDEST JUMPDEST SWAP1 PUSH1 0x0 MSTORE PUSH1 0x20 PUSH1 0x0 KECCAK256 ADD PUSH1 0x0 SWAP1 SLOAD SWAP1 PUSH2 0x100 EXP SWAP1 DIV PUSH20 0xFFFFFFFFFFFFFFFFFFFFFFFFFFFFFFFFFFFFFFFF AND PUSH20 0xFFFFFFFFFFFFFFFFFFFFFFFFFFFFFFFFFFFFFFFF AND PUSH20 0xFFFFFFFFFFFFFFFFFFFFFFFFFFFFFFFFFFFFFFFF AND DUP2 MSTORE PUSH1 0x20 ADD SWAP1 DUP2 MSTORE PUSH1 0x20 ADD PUSH1 0x0 KECCAK256 SLOAD PUSH2 0x2681 SWAP2 SWAP1 PUSH2 0x323D JUMP JUMPDEST PUSH2 0x268B SWAP2 SWAP1 PUSH2 0x31B4 JUMP JUMPDEST SWAP1 POP DUP1 PUSH1 0x7 PUSH1 0x0 PUSH1 0x5 DUP6 DUP2 SLOAD DUP2 LT PUSH2 0x26A6 JUMPI PUSH2 0x26A5 PUSH2 0x2ADC JUMP JUMPDEST JUMPDEST SWAP1 PUSH1 0x0 MSTORE PUSH1 0x20 PUSH1 0x0 KECCAK256 ADD PUSH1 0x0 SWAP1 SLOAD SWAP1 PUSH2 0x100 EXP SWAP1 DIV PUSH20 0xFFFFFFFFFFFFFFFFFFFFFFFFFFFFFFFFFFFFFFFF AND PUSH20 0xFFFFFFFFFFFFFFFFFFFFFFFFFFFFFFFFFFFFFFFF AND PUSH20 0xFFFFFFFFFFFFFFFFFFFFFFFFFFFFFFFFFFFFFFFF AND DUP2 MSTORE PUSH1 0x20 ADD SWAP1 DUP2 MSTORE PUSH1 0x20 ADD PUSH1 0x0 KECCAK256 PUSH1 0x0 DUP3 DUP3 SLOAD PUSH2 0x271A SWAP2 SWAP1 PUSH2 0x2B3A JUMP JUMPDEST SWAP3 POP POP DUP2 SWAP1 SSTORE POP POP DUP1 DUP1 PUSH2 0x272D SWAP1 PUSH2 0x2B90 JUMP JUMPDEST SWAP2 POP POP PUSH2 0x25E6 JUMP JUMPDEST POP POP JUMP JUMPDEST PUSH1 0x0 JUMPDEST PUSH1 0x4 DUP1 SLOAD SWAP1 POP DUP2 LT ISZERO PUSH2 0x288B JUMPI PUSH1 0x0 DUP3 PUSH1 0x0 SLOAD PUSH1 0x2 PUSH1 0x0 PUSH1 0x4 DUP7 DUP2 SLOAD DUP2 LT PUSH2 0x2767 JUMPI PUSH2 0x2766 PUSH2 0x2ADC JUMP JUMPDEST JUMPDEST SWAP1 PUSH1 0x0 MSTORE PUSH1 0x20 PUSH1 0x0 KECCAK256 ADD PUSH1 0x0 SWAP1 SLOAD SWAP1 PUSH2 0x100 EXP SWAP1 DIV PUSH20 0xFFFFFFFFFFFFFFFFFFFFFFFFFFFFFFFFFFFFFFFF AND PUSH20 0xFFFFFFFFFFFFFFFFFFFFFFFFFFFFFFFFFFFFFFFF AND PUSH20 0xFFFFFFFFFFFFFFFFFFFFFFFFFFFFFFFFFFFFFFFF AND DUP2 MSTORE PUSH1 0x20 ADD SWAP1 DUP2 MSTORE PUSH1 0x20 ADD PUSH1 0x0 KECCAK256 SLOAD PUSH2 0x27D7 SWAP2 SWAP1 PUSH2 0x323D JUMP JUMPDEST PUSH2 0x27E1 SWAP2 SWAP1 PUSH2 0x31B4 JUMP JUMPDEST SWAP1 POP DUP1 PUSH1 0x6 PUSH1 0x0 PUSH1 0x4 DUP6 DUP2 SLOAD DUP2 LT PUSH2 0x27FC JUMPI PUSH2 0x27FB PUSH2 0x2ADC JUMP JUMPDEST JUMPDEST SWAP1 PUSH1 0x0 MSTORE PUSH1 0x20 PUSH1 0x0 KECCAK256 ADD PUSH1 0x0 SWAP1 SLOAD SWAP1 PUSH2 0x100 EXP SWAP1 DIV PUSH20 0xFFFFFFFFFFFFFFFFFFFFFFFFFFFFFFFFFFFFFFFF AND PUSH20 0xFFFFFFFFFFFFFFFFFFFFFFFFFFFFFFFFFFFFFFFF AND PUSH20 0xFFFFFFFFFFFFFFFFFFFFFFFFFFFFFFFFFFFFFFFF AND DUP2 MSTORE PUSH1 0x20 ADD SWAP1 DUP2 MSTORE PUSH1 0x20 ADD PUSH1 0x0 KECCAK256 PUSH1 0x0 DUP3 DUP3 SLOAD PUSH2 0x2870 SWAP2 SWAP1 PUSH2 0x2B3A JUMP JUMPDEST SWAP3 POP POP DUP2 SWAP1 SSTORE POP POP DUP1 DUP1 PUSH2 0x2883 SWAP1 PUSH2 0x2B90 JUMP JUMPDEST SWAP2 POP POP PUSH2 0x273C JUMP JUMPDEST POP POP JUMP JUMPDEST PUSH1 0x0 PUSH1 0x40 MLOAD SWAP1 POP SWAP1 JUMP JUMPDEST PUSH1 0x0 DUP1 REVERT JUMPDEST PUSH1 0x0 DUP1 REVERT JUMPDEST PUSH1 0x0 DUP2 SWAP1 POP SWAP2 SWAP1 POP JUMP JUMPDEST PUSH2 0x28B6 DUP2 PUSH2 0x28A3 JUMP JUMPDEST DUP2 EQ PUSH2 0x28C1 JUMPI PUSH1 0x0 DUP1 REVERT JUMPDEST POP JUMP JUMPDEST PUSH1 0x0 DUP2 CALLDATALOAD SWAP1 POP PUSH2 0x28D3 DUP2 PUSH2 0x28AD JUMP JUMPDEST SWAP3 SWAP2 POP POP JUMP JUMPDEST PUSH1 0x0 PUSH1 0x20 DUP3 DUP5 SUB SLT ISZERO PUSH2 0x28EF JUMPI PUSH2 0x28EE PUSH2 0x2899 JUMP JUMPDEST JUMPDEST PUSH1 0x0 PUSH2 0x28FD DUP5 DUP3 DUP6 ADD PUSH2 0x28C4 JUMP JUMPDEST SWAP2 POP POP SWAP3 SWAP2 POP POP JUMP JUMPDEST PUSH2 0x290F DUP2 PUSH2 0x28A3 JUMP JUMPDEST DUP3 MSTORE POP POP JUMP JUMPDEST PUSH1 0x0 PUSH1 0x20 DUP3 ADD SWAP1 POP PUSH2 0x292A PUSH1 0x0 DUP4 ADD DUP5 PUSH2 0x2906 JUMP JUMPDEST SWAP3 SWAP2 POP POP JUMP JUMPDEST PUSH1 0x0 PUSH20 0xFFFFFFFFFFFFFFFFFFFFFFFFFFFFFFFFFFFFFFFF DUP3 AND SWAP1 POP SWAP2 SWAP1 POP JUMP JUMPDEST PUSH1 0x0 DUP2 SWAP1 POP SWAP2 SWAP1 POP JUMP JUMPDEST PUSH1 0x0 PUSH2 0x2975 PUSH2 0x2970 PUSH2 0x296B DUP5 PUSH2 0x2930 JUMP JUMPDEST PUSH2 0x2950 JUMP JUMPDEST PUSH2 0x2930 JUMP JUMPDEST SWAP1 POP SWAP2 SWAP1 POP JUMP JUMPDEST PUSH1 0x0 PUSH2 0x2987 DUP3 PUSH2 0x295A JUMP JUMPDEST SWAP1 POP SWAP2 SWAP1 POP JUMP JUMPDEST PUSH1 0x0 PUSH2 0x2999 DUP3 PUSH2 0x297C JUMP JUMPDEST SWAP1 POP SWAP2 SWAP1 POP JUMP JUMPDEST PUSH2 0x29A9 DUP2 PUSH2 0x298E JUMP JUMPDEST DUP3 MSTORE POP POP JUMP JUMPDEST PUSH1 0x0 PUSH1 0x20 DUP3 ADD SWAP1 POP PUSH2 0x29C4 PUSH1 0x0 DUP4 ADD DUP5 PUSH2 0x29A0 JUMP JUMPDEST SWAP3 SWAP2 POP POP JUMP JUMPDEST PUSH1 0x0 PUSH2 0x29D5 DUP3 PUSH2 0x2930 JUMP JUMPDEST SWAP1 POP SWAP2 SWAP1 POP JUMP JUMPDEST PUSH2 0x29E5 DUP2 PUSH2 0x29CA JUMP JUMPDEST DUP2 EQ PUSH2 0x29F0 JUMPI PUSH1 0x0 DUP1 REVERT JUMPDEST POP JUMP JUMPDEST PUSH1 0x0 DUP2 CALLDATALOAD SWAP1 POP PUSH2 0x2A02 DUP2 PUSH2 0x29DC JUMP JUMPDEST SWAP3 SWAP2 POP POP JUMP JUMPDEST PUSH1 0x0 PUSH1 0x20 DUP3 DUP5 SUB SLT ISZERO PUSH2 0x2A1E JUMPI PUSH2 0x2A1D PUSH2 0x2899 JUMP JUMPDEST JUMPDEST PUSH1 0x0 PUSH2 0x2A2C DUP5 DUP3 DUP6 ADD PUSH2 0x29F3 JUMP JUMPDEST SWAP2 POP POP SWAP3 SWAP2 POP POP JUMP JUMPDEST PUSH2 0x2A3E DUP2 PUSH2 0x29CA JUMP JUMPDEST DUP3 MSTORE POP POP JUMP JUMPDEST PUSH1 0x0 PUSH1 0x20 DUP3 ADD SWAP1 POP PUSH2 0x2A59 PUSH1 0x0 DUP4 ADD DUP5 PUSH2 0x2A35 JUMP JUMPDEST SWAP3 SWAP2 POP POP JUMP JUMPDEST PUSH1 0x0 DUP3 DUP3 MSTORE PUSH1 0x20 DUP3 ADD SWAP1 POP SWAP3 SWAP2 POP POP JUMP JUMPDEST PUSH32 0x6F6E6C79206F776E657200000000000000000000000000000000000000000000 PUSH1 0x0 DUP3 ADD MSTORE POP JUMP JUMPDEST PUSH1 0x0 PUSH2 0x2AA6 PUSH1 0xA DUP4 PUSH2 0x2A5F JUMP JUMPDEST SWAP2 POP PUSH2 0x2AB1 DUP3 PUSH2 0x2A70 JUMP JUMPDEST PUSH1 0x20 DUP3 ADD SWAP1 POP SWAP2 SWAP1 POP JUMP JUMPDEST PUSH1 0x0 PUSH1 0x20 DUP3 ADD SWAP1 POP DUP2 DUP2 SUB PUSH1 0x0 DUP4 ADD MSTORE PUSH2 0x2AD5 DUP2 PUSH2 0x2A99 JUMP JUMPDEST SWAP1 POP SWAP2 SWAP1 POP JUMP JUMPDEST PUSH32 0x4E487B7100000000000000000000000000000000000000000000000000000000 PUSH1 0x0 MSTORE PUSH1 0x32 PUSH1 0x4 MSTORE PUSH1 0x24 PUSH1 0x0 REVERT JUMPDEST PUSH32 0x4E487B7100000000000000000000000000000000000000000000000000000000 PUSH1 0x0 MSTORE PUSH1 0x11 PUSH1 0x4 MSTORE PUSH1 0x24 PUSH1 0x0 REVERT JUMPDEST PUSH1 0x0 PUSH2 0x2B45 DUP3 PUSH2 0x28A3 JUMP JUMPDEST SWAP2 POP PUSH2 0x2B50 DUP4 PUSH2 0x28A3 JUMP JUMPDEST SWAP3 POP DUP3 PUSH32 0xFFFFFFFFFFFFFFFFFFFFFFFFFFFFFFFFFFFFFFFFFFFFFFFFFFFFFFFFFFFFFFFF SUB DUP3 GT ISZERO PUSH2 0x2B85 JUMPI PUSH2 0x2B84 PUSH2 0x2B0B JUMP JUMPDEST JUMPDEST DUP3 DUP3 ADD SWAP1 POP SWAP3 SWAP2 POP POP JUMP JUMPDEST PUSH1 0x0 PUSH2 0x2B9B DUP3 PUSH2 0x28A3 JUMP JUMPDEST SWAP2 POP PUSH32 0xFFFFFFFFFFFFFFFFFFFFFFFFFFFFFFFFFFFFFFFFFFFFFFFFFFFFFFFFFFFFFFFF DUP3 SUB PUSH2 0x2BCD JUMPI PUSH2 0x2BCC PUSH2 0x2B0B JUMP JUMPDEST JUMPDEST PUSH1 0x1 DUP3 ADD SWAP1 POP SWAP2 SWAP1 POP JUMP JUMPDEST PUSH32 0x4E487B7100000000000000000000000000000000000000000000000000000000 PUSH1 0x0 MSTORE PUSH1 0x31 PUSH1 0x4 MSTORE PUSH1 0x24 PUSH1 0x0 REVERT JUMPDEST PUSH32 0x4E6F7420656E61756768207374616B696E670000000000000000000000000000 PUSH1 0x0 DUP3 ADD MSTORE POP JUMP JUMPDEST PUSH1 0x0 PUSH2 0x2C3D PUSH1 0x12 DUP4 PUSH2 0x2A5F JUMP JUMPDEST SWAP2 POP PUSH2 0x2C48 DUP3 PUSH2 0x2C07 JUMP JUMPDEST PUSH1 0x20 DUP3 ADD SWAP1 POP SWAP2 SWAP1 POP JUMP JUMPDEST PUSH1 0x0 PUSH1 0x20 DUP3 ADD SWAP1 POP DUP2 DUP2 SUB PUSH1 0x0 DUP4 ADD MSTORE PUSH2 0x2C6C DUP2 PUSH2 0x2C30 JUMP JUMPDEST SWAP1 POP SWAP2 SWAP1 POP JUMP JUMPDEST PUSH32 0x52656D6F7665206D6F7265207468616E20300000000000000000000000000000 PUSH1 0x0 DUP3 ADD MSTORE POP JUMP JUMPDEST PUSH1 0x0 PUSH2 0x2CA9 PUSH1 0x12 DUP4 PUSH2 0x2A5F JUMP JUMPDEST SWAP2 POP PUSH2 0x2CB4 DUP3 PUSH2 0x2C73 JUMP JUMPDEST PUSH1 0x20 DUP3 ADD SWAP1 POP SWAP2 SWAP1 POP JUMP JUMPDEST PUSH1 0x0 PUSH1 0x20 DUP3 ADD SWAP1 POP DUP2 DUP2 SUB PUSH1 0x0 DUP4 ADD MSTORE PUSH2 0x2CD8 DUP2 PUSH2 0x2C9C JUMP JUMPDEST SWAP1 POP SWAP2 SWAP1 POP JUMP JUMPDEST PUSH1 0x0 DUP2 MLOAD SWAP1 POP PUSH2 0x2CEE DUP2 PUSH2 0x28AD JUMP JUMPDEST SWAP3 SWAP2 POP POP JUMP JUMPDEST PUSH1 0x0 PUSH1 0x20 DUP3 DUP5 SUB SLT ISZERO PUSH2 0x2D0A JUMPI PUSH2 0x2D09 PUSH2 0x2899 JUMP JUMPDEST JUMPDEST PUSH1 0x0 PUSH2 0x2D18 DUP5 DUP3 DUP6 ADD PUSH2 0x2CDF JUMP JUMPDEST SWAP2 POP POP SWAP3 SWAP2 POP POP JUMP JUMPDEST PUSH1 0x0 PUSH1 0x40 DUP3 ADD SWAP1 POP PUSH2 0x2D36 PUSH1 0x0 DUP4 ADD DUP6 PUSH2 0x2A35 JUMP JUMPDEST PUSH2 0x2D43 PUSH1 0x20 DUP4 ADD DUP5 PUSH2 0x2906 JUMP JUMPDEST SWAP4 SWAP3 POP POP POP JUMP JUMPDEST PUSH1 0x0 DUP2 ISZERO ISZERO SWAP1 POP SWAP2 SWAP1 POP JUMP JUMPDEST PUSH2 0x2D5F DUP2 PUSH2 0x2D4A JUMP JUMPDEST DUP2 EQ PUSH2 0x2D6A JUMPI PUSH1 0x0 DUP1 REVERT JUMPDEST POP JUMP JUMPDEST PUSH1 0x0 DUP2 MLOAD SWAP1 POP PUSH2 0x2D7C DUP2 PUSH2 0x2D56 JUMP JUMPDEST SWAP3 SWAP2 POP POP JUMP JUMPDEST PUSH1 0x0 PUSH1 0x20 DUP3 DUP5 SUB SLT ISZERO PUSH2 0x2D98 JUMPI PUSH2 0x2D97 PUSH2 0x2899 JUMP JUMPDEST JUMPDEST PUSH1 0x0 PUSH2 0x2DA6 DUP5 DUP3 DUP6 ADD PUSH2 0x2D6D JUMP JUMPDEST SWAP2 POP POP SWAP3 SWAP2 POP POP JUMP JUMPDEST PUSH1 0x0 PUSH2 0x2DBA DUP3 PUSH2 0x28A3 JUMP JUMPDEST SWAP2 POP PUSH2 0x2DC5 DUP4 PUSH2 0x28A3 JUMP JUMPDEST SWAP3 POP DUP3 DUP3 LT ISZERO PUSH2 0x2DD8 JUMPI PUSH2 0x2DD7 PUSH2 0x2B0B JUMP JUMPDEST JUMPDEST DUP3 DUP3 SUB SWAP1 POP SWAP3 SWAP2 POP POP JUMP JUMPDEST PUSH32 0x4E487B7100000000000000000000000000000000000000000000000000000000 PUSH1 0x0 MSTORE PUSH1 0x1 PUSH1 0x4 MSTORE PUSH1 0x24 PUSH1 0x0 REVERT JUMPDEST PUSH1 0x0 DUP1 REVERT JUMPDEST PUSH1 0x0 DUP1 REVERT JUMPDEST PUSH1 0x0 PUSH1 0x1F NOT PUSH1 0x1F DUP4 ADD AND SWAP1 POP SWAP2 SWAP1 POP JUMP JUMPDEST PUSH32 0x4E487B7100000000000000000000000000000000000000000000000000000000 PUSH1 0x0 MSTORE PUSH1 0x41 PUSH1 0x4 MSTORE PUSH1 0x24 PUSH1 0x0 REVERT JUMPDEST PUSH2 0x2E65 DUP3 PUSH2 0x2E1C JUMP JUMPDEST DUP2 ADD DUP2 DUP2 LT PUSH8 0xFFFFFFFFFFFFFFFF DUP3 GT OR ISZERO PUSH2 0x2E84 JUMPI PUSH2 0x2E83 PUSH2 0x2E2D JUMP JUMPDEST JUMPDEST DUP1 PUSH1 0x40 MSTORE POP POP POP JUMP JUMPDEST PUSH1 0x0 PUSH2 0x2E97 PUSH2 0x288F JUMP JUMPDEST SWAP1 POP PUSH2 0x2EA3 DUP3 DUP3 PUSH2 0x2E5C JUMP JUMPDEST SWAP2 SWAP1 POP JUMP JUMPDEST PUSH1 0x0 PUSH8 0xFFFFFFFFFFFFFFFF DUP3 GT ISZERO PUSH2 0x2EC3 JUMPI PUSH2 0x2EC2 PUSH2 0x2E2D JUMP JUMPDEST JUMPDEST PUSH2 0x2ECC DUP3 PUSH2 0x2E1C JUMP JUMPDEST SWAP1 POP PUSH1 0x20 DUP2 ADD SWAP1 POP SWAP2 SWAP1 POP JUMP JUMPDEST PUSH1 0x0 JUMPDEST DUP4 DUP2 LT ISZERO PUSH2 0x2EF7 JUMPI DUP1 DUP3 ADD MLOAD DUP2 DUP5 ADD MSTORE PUSH1 0x20 DUP2 ADD SWAP1 POP PUSH2 0x2EDC JUMP JUMPDEST DUP4 DUP2 GT ISZERO PUSH2 0x2F06 JUMPI PUSH1 0x0 DUP5 DUP5 ADD MSTORE JUMPDEST POP POP POP POP JUMP JUMPDEST PUSH1 0x0 PUSH2 0x2F1F PUSH2 0x2F1A DUP5 PUSH2 0x2EA8 JUMP JUMPDEST PUSH2 0x2E8D JUMP JUMPDEST SWAP1 POP DUP3 DUP2 MSTORE PUSH1 0x20 DUP2 ADD DUP5 DUP5 DUP5 ADD GT ISZERO PUSH2 0x2F3B JUMPI PUSH2 0x2F3A PUSH2 0x2E17 JUMP JUMPDEST JUMPDEST PUSH2 0x2F46 DUP5 DUP3 DUP6 PUSH2 0x2ED9 JUMP JUMPDEST POP SWAP4 SWAP3 POP POP POP JUMP JUMPDEST PUSH1 0x0 DUP3 PUSH1 0x1F DUP4 ADD SLT PUSH2 0x2F63 JUMPI PUSH2 0x2F62 PUSH2 0x2E12 JUMP JUMPDEST JUMPDEST DUP2 MLOAD PUSH2 0x2F73 DUP5 DUP3 PUSH1 0x20 DUP7 ADD PUSH2 0x2F0C JUMP JUMPDEST SWAP2 POP POP SWAP3 SWAP2 POP POP JUMP JUMPDEST PUSH1 0x0 PUSH1 0x20 DUP3 DUP5 SUB SLT ISZERO PUSH2 0x2F92 JUMPI PUSH2 0x2F91 PUSH2 0x2899 JUMP JUMPDEST JUMPDEST PUSH1 0x0 DUP3 ADD MLOAD PUSH8 0xFFFFFFFFFFFFFFFF DUP2 GT ISZERO PUSH2 0x2FB0 JUMPI PUSH2 0x2FAF PUSH2 0x289E JUMP JUMPDEST JUMPDEST PUSH2 0x2FBC DUP5 DUP3 DUP6 ADD PUSH2 0x2F4E JUMP JUMPDEST SWAP2 POP POP SWAP3 SWAP2 POP POP JUMP JUMPDEST PUSH1 0x0 DUP2 MLOAD SWAP1 POP SWAP2 SWAP1 POP JUMP JUMPDEST PUSH1 0x0 PUSH2 0x2FDB DUP3 PUSH2 0x2FC5 JUMP JUMPDEST PUSH2 0x2FE5 DUP2 DUP6 PUSH2 0x2A5F JUMP JUMPDEST SWAP4 POP PUSH2 0x2FF5 DUP2 DUP6 PUSH1 0x20 DUP7 ADD PUSH2 0x2ED9 JUMP JUMPDEST PUSH2 0x2FFE DUP2 PUSH2 0x2E1C JUMP JUMPDEST DUP5 ADD SWAP2 POP POP SWAP3 SWAP2 POP POP JUMP JUMPDEST PUSH1 0x0 PUSH1 0x40 DUP3 ADD SWAP1 POP PUSH2 0x301E PUSH1 0x0 DUP4 ADD DUP6 PUSH2 0x2906 JUMP JUMPDEST DUP2 DUP2 SUB PUSH1 0x20 DUP4 ADD MSTORE PUSH2 0x3030 DUP2 DUP5 PUSH2 0x2FD0 JUMP JUMPDEST SWAP1 POP SWAP4 SWAP3 POP POP POP JUMP JUMPDEST PUSH32 0x496E73756666696369656E742066756E64730000000000000000000000000000 PUSH1 0x0 DUP3 ADD MSTORE POP JUMP JUMPDEST PUSH1 0x0 PUSH2 0x306F PUSH1 0x12 DUP4 PUSH2 0x2A5F JUMP JUMPDEST SWAP2 POP PUSH2 0x307A DUP3 PUSH2 0x3039 JUMP JUMPDEST PUSH1 0x20 DUP3 ADD SWAP1 POP SWAP2 SWAP1 POP JUMP JUMPDEST PUSH1 0x0 PUSH1 0x20 DUP3 ADD SWAP1 POP DUP2 DUP2 SUB PUSH1 0x0 DUP4 ADD MSTORE PUSH2 0x309E DUP2 PUSH2 0x3062 JUMP JUMPDEST SWAP1 POP SWAP2 SWAP1 POP JUMP JUMPDEST PUSH32 0x507574206D6F7265207468616E20300000000000000000000000000000000000 PUSH1 0x0 DUP3 ADD MSTORE POP JUMP JUMPDEST PUSH1 0x0 PUSH2 0x30DB PUSH1 0xF DUP4 PUSH2 0x2A5F JUMP JUMPDEST SWAP2 POP PUSH2 0x30E6 DUP3 PUSH2 0x30A5 JUMP JUMPDEST PUSH1 0x20 DUP3 ADD SWAP1 POP SWAP2 SWAP1 POP JUMP JUMPDEST PUSH1 0x0 PUSH1 0x20 DUP3 ADD SWAP1 POP DUP2 DUP2 SUB PUSH1 0x0 DUP4 ADD MSTORE PUSH2 0x310A DUP2 PUSH2 0x30CE JUMP JUMPDEST SWAP1 POP SWAP2 SWAP1 POP JUMP JUMPDEST PUSH1 0x0 PUSH1 0x60 DUP3 ADD SWAP1 POP PUSH2 0x3126 PUSH1 0x0 DUP4 ADD DUP7 PUSH2 0x2A35 JUMP JUMPDEST PUSH2 0x3133 PUSH1 0x20 DUP4 ADD DUP6 PUSH2 0x2A35 JUMP JUMPDEST PUSH2 0x3140 PUSH1 0x40 DUP4 ADD DUP5 PUSH2 0x2906 JUMP JUMPDEST SWAP5 SWAP4 POP POP POP POP JUMP JUMPDEST PUSH32 0x596F752068617665206E6F207072697A6520746F207769746864726177000000 PUSH1 0x0 DUP3 ADD MSTORE POP JUMP JUMPDEST PUSH1 0x0 PUSH2 0x317E PUSH1 0x1D DUP4 PUSH2 0x2A5F JUMP JUMPDEST SWAP2 POP PUSH2 0x3189 DUP3 PUSH2 0x3148 JUMP JUMPDEST PUSH1 0x20 DUP3 ADD SWAP1 POP SWAP2 SWAP1 POP JUMP JUMPDEST PUSH1 0x0 PUSH1 0x20 DUP3 ADD SWAP1 POP DUP2 DUP2 SUB PUSH1 0x0 DUP4 ADD MSTORE PUSH2 0x31AD DUP2 PUSH2 0x3171 JUMP JUMPDEST SWAP1 POP SWAP2 SWAP1 POP JUMP JUMPDEST PUSH1 0x0 PUSH2 0x31BF DUP3 PUSH2 0x28A3 JUMP JUMPDEST SWAP2 POP PUSH2 0x31CA DUP4 PUSH2 0x28A3 JUMP JUMPDEST SWAP3 POP DUP2 PUSH32 0xFFFFFFFFFFFFFFFFFFFFFFFFFFFFFFFFFFFFFFFFFFFFFFFFFFFFFFFFFFFFFFFF DIV DUP4 GT DUP3 ISZERO ISZERO AND ISZERO PUSH2 0x3203 JUMPI PUSH2 0x3202 PUSH2 0x2B0B JUMP JUMPDEST JUMPDEST DUP3 DUP3 MUL SWAP1 POP SWAP3 SWAP2 POP POP JUMP JUMPDEST PUSH32 0x4E487B7100000000000000000000000000000000000000000000000000000000 PUSH1 0x0 MSTORE PUSH1 0x12 PUSH1 0x4 MSTORE PUSH1 0x24 PUSH1 0x0 REVERT JUMPDEST PUSH1 0x0 PUSH2 0x3248 DUP3 PUSH2 0x28A3 JUMP JUMPDEST SWAP2 POP PUSH2 0x3253 DUP4 PUSH2 0x28A3 JUMP JUMPDEST SWAP3 POP DUP3 PUSH2 0x3263 JUMPI PUSH2 0x3262 PUSH2 0x320E JUMP JUMPDEST JUMPDEST DUP3 DUP3 DIV SWAP1 POP SWAP3 SWAP2 POP POP JUMP JUMPDEST PUSH1 0x0 PUSH1 0x80 DUP3 ADD SWAP1 POP PUSH2 0x3283 PUSH1 0x0 DUP4 ADD DUP8 PUSH2 0x2906 JUMP JUMPDEST PUSH2 0x3290 PUSH1 0x20 DUP4 ADD DUP7 PUSH2 0x2906 JUMP JUMPDEST DUP2 DUP2 SUB PUSH1 0x40 DUP4 ADD MSTORE PUSH2 0x32A2 DUP2 DUP6 PUSH2 0x2FD0 JUMP JUMPDEST SWAP1 POP DUP2 DUP2 SUB PUSH1 0x60 DUP4 ADD MSTORE PUSH2 0x32B6 DUP2 DUP5 PUSH2 0x2FD0 JUMP JUMPDEST SWAP1 POP SWAP6 SWAP5 POP POP POP POP POP JUMP INVALID LOG2 PUSH5 0x6970667358 0x22 SLT KECCAK256 0xD4 0xC2 0xFC PUSH4 0xAE8B4BDF 0xAA 0x5D PUSH22 0x73C6D07A4C8EAEDD02D187A03861DD3400CF02FF3264 PUSH20 0x6F6C634300080D00330000000000000000000000 "
        },
        "methodIdentifiers": {
          "addStake0(uint256)": "ba0af510",
          "addStake1(uint256)": "073dbfc4",
          "deleteZeroStakers()": "000f0573",
          "exchange0to1(uint256)": "61b723cf",
          "exchange1to0(uint256)": "5b1f8e0d",
          "getToken0pool()": "f9d5263f",
          "getToken1pool()": "691eed56",
          "owner()": "8da5cb5b",
          "pool0()": "c81533a4",
          "pool1()": "05ea3ed5",
          "prize0(address)": "14ca9c39",
          "prize1(address)": "4526d37d",
          "removeStake0(uint256)": "79144129",
          "removeStake1(uint256)": "01afe5fa",
          "stake0(address)": "367e6e8a",
          "stake1(address)": "3a1f5228",
          "staker0(uint256)": "4d3ed3d3",
          "staker1(uint256)": "a1f73f9c",
          "token0()": "0dfe1681",
          "token1()": "d21220a7",
          "withdrawPrize0()": "5d862828",
          "withdrawPrize1()": "43817180"
        }
      }
    }
  }
}