{
  "_format": "hh-sol-artifact-1",
  "contractName": "RubyPool",
  "sourceName": "contracts/RubyPool.sol",
  "abi": [
    {
      "inputs": [
        {
          "internalType": "address",
          "name": "_token0addr",
          "type": "address"
        },
        {
          "internalType": "address",
          "name": "_token1addr",
          "type": "address"
        }
      ],
      "stateMutability": "nonpayable",
      "type": "constructor"
    },
    {
      "anonymous": false,
      "inputs": [
        {
          "indexed": false,
          "internalType": "uint256",
          "name": "amount",
          "type": "uint256"
        },
        {
          "indexed": false,
          "internalType": "string",
          "name": "token",
          "type": "string"
        }
      ],
      "name": "stakeAdded",
      "type": "event"
    },
    {
      "anonymous": false,
      "inputs": [
        {
          "indexed": false,
          "internalType": "uint256",
          "name": "amount",
          "type": "uint256"
        },
        {
          "indexed": false,
          "internalType": "string",
          "name": "token",
          "type": "string"
        }
      ],
      "name": "stakeRemoved",
      "type": "event"
    },
    {
      "anonymous": false,
      "inputs": [
        {
          "indexed": false,
          "internalType": "uint256",
          "name": "amountIn",
          "type": "uint256"
        },
        {
          "indexed": false,
          "internalType": "uint256",
          "name": "amountOut",
          "type": "uint256"
        },
        {
          "indexed": false,
          "internalType": "string",
          "name": "tokenIn",
          "type": "string"
        },
        {
          "indexed": false,
          "internalType": "string",
          "name": "tokenOut",
          "type": "string"
        }
      ],
      "name": "swap",
      "type": "event"
    },
    {
      "inputs": [
        {
          "internalType": "uint256",
          "name": "_amount",
          "type": "uint256"
        }
      ],
      "name": "addStake0",
      "outputs": [],
      "stateMutability": "nonpayable",
      "type": "function"
    },
    {
      "inputs": [
        {
          "internalType": "uint256",
          "name": "_amount",
          "type": "uint256"
        }
      ],
      "name": "addStake1",
      "outputs": [],
      "stateMutability": "nonpayable",
      "type": "function"
    },
    {
      "inputs": [],
      "name": "deleteZeroStakers",
      "outputs": [],
      "stateMutability": "nonpayable",
      "type": "function"
    },
    {
      "inputs": [
        {
          "internalType": "uint256",
          "name": "_amount",
          "type": "uint256"
        }
      ],
      "name": "exchange0to1",
      "outputs": [],
      "stateMutability": "nonpayable",
      "type": "function"
    },
    {
      "inputs": [
        {
          "internalType": "uint256",
          "name": "_amount",
          "type": "uint256"
        }
      ],
      "name": "exchange1to0",
      "outputs": [],
      "stateMutability": "nonpayable",
      "type": "function"
    },
    {
      "inputs": [],
      "name": "getToken0pool",
      "outputs": [
        {
          "internalType": "uint256",
          "name": "",
          "type": "uint256"
        }
      ],
      "stateMutability": "view",
      "type": "function"
    },
    {
      "inputs": [],
      "name": "getToken1pool",
      "outputs": [
        {
          "internalType": "uint256",
          "name": "",
          "type": "uint256"
        }
      ],
      "stateMutability": "view",
      "type": "function"
    },
    {
      "inputs": [],
      "name": "owner",
      "outputs": [
        {
          "internalType": "address",
          "name": "",
          "type": "address"
        }
      ],
      "stateMutability": "view",
      "type": "function"
    },
    {
      "inputs": [],
      "name": "pool0",
      "outputs": [
        {
          "internalType": "uint256",
          "name": "",
          "type": "uint256"
        }
      ],
      "stateMutability": "view",
      "type": "function"
    },
    {
      "inputs": [],
      "name": "pool1",
      "outputs": [
        {
          "internalType": "uint256",
          "name": "",
          "type": "uint256"
        }
      ],
      "stateMutability": "view",
      "type": "function"
    },
    {
      "inputs": [
        {
          "internalType": "address",
          "name": "",
          "type": "address"
        }
      ],
      "name": "prize0",
      "outputs": [
        {
          "internalType": "uint256",
          "name": "",
          "type": "uint256"
        }
      ],
      "stateMutability": "view",
      "type": "function"
    },
    {
      "inputs": [
        {
          "internalType": "address",
          "name": "",
          "type": "address"
        }
      ],
      "name": "prize1",
      "outputs": [
        {
          "internalType": "uint256",
          "name": "",
          "type": "uint256"
        }
      ],
      "stateMutability": "view",
      "type": "function"
    },
    {
      "inputs": [
        {
          "internalType": "uint256",
          "name": "_amount",
          "type": "uint256"
        }
      ],
      "name": "removeStake0",
      "outputs": [],
      "stateMutability": "nonpayable",
      "type": "function"
    },
    {
      "inputs": [
        {
          "internalType": "uint256",
          "name": "_amount",
          "type": "uint256"
        }
      ],
      "name": "removeStake1",
      "outputs": [],
      "stateMutability": "nonpayable",
      "type": "function"
    },
    {
      "inputs": [
        {
          "internalType": "address",
          "name": "",
          "type": "address"
        }
      ],
      "name": "stake0",
      "outputs": [
        {
          "internalType": "uint256",
          "name": "",
          "type": "uint256"
        }
      ],
      "stateMutability": "view",
      "type": "function"
    },
    {
      "inputs": [
        {
          "internalType": "address",
          "name": "",
          "type": "address"
        }
      ],
      "name": "stake1",
      "outputs": [
        {
          "internalType": "uint256",
          "name": "",
          "type": "uint256"
        }
      ],
      "stateMutability": "view",
      "type": "function"
    },
    {
      "inputs": [
        {
          "internalType": "uint256",
          "name": "",
          "type": "uint256"
        }
      ],
      "name": "staker0",
      "outputs": [
        {
          "internalType": "address",
          "name": "",
          "type": "address"
        }
      ],
      "stateMutability": "view",
      "type": "function"
    },
    {
      "inputs": [
        {
          "internalType": "uint256",
          "name": "",
          "type": "uint256"
        }
      ],
      "name": "staker1",
      "outputs": [
        {
          "internalType": "address",
          "name": "",
          "type": "address"
        }
      ],
      "stateMutability": "view",
      "type": "function"
    },
    {
      "inputs": [],
      "name": "token0",
      "outputs": [
        {
          "internalType": "contract ERC20",
          "name": "",
          "type": "address"
        }
      ],
      "stateMutability": "view",
      "type": "function"
    },
    {
      "inputs": [],
      "name": "token1",
      "outputs": [
        {
          "internalType": "contract ERC20",
          "name": "",
          "type": "address"
        }
      ],
      "stateMutability": "view",
      "type": "function"
    },
    {
      "inputs": [],
      "name": "withdrawPrize0",
      "outputs": [],
      "stateMutability": "nonpayable",
      "type": "function"
    },
    {
      "inputs": [],
      "name": "withdrawPrize1",
      "outputs": [],
      "stateMutability": "nonpayable",
      "type": "function"
    }
  ],
  "bytecode": "0x60e06040523480156200001157600080fd5b50604051620035a9380380620035a9833981810160405281019062000037919062000154565b8173ffffffffffffffffffffffffffffffffffffffff1660808173ffffffffffffffffffffffffffffffffffffffff16815250508073ffffffffffffffffffffffffffffffffffffffff1660a08173ffffffffffffffffffffffffffffffffffffffff16815250506000808190555060006001819055503373ffffffffffffffffffffffffffffffffffffffff1660c08173ffffffffffffffffffffffffffffffffffffffff168152505050506200019b565b600080fd5b600073ffffffffffffffffffffffffffffffffffffffff82169050919050565b60006200011c82620000ef565b9050919050565b6200012e816200010f565b81146200013a57600080fd5b50565b6000815190506200014e8162000123565b92915050565b600080604083850312156200016e576200016d620000ea565b5b60006200017e858286016200013d565b925050602062000191858286016200013d565b9150509250929050565b60805160a05160c0516132f7620002b2600039600081816104000152612004015260008181610716015281816107b2015281816108cc0152818161099601528181610a4b01528181610b6b01528181610c0701528181610d8601528181610e50015281816110750152818161116f015281816112e6015281816114520152818161195e01528181611abd01528181611b710152612520015260008181610efe01528181611387015281816114e6015281816116a301528181611746015281816118bd01528181611a2901528181611cd701528181611d7301528181611e8c01528181611f56015281816120680152818161218801528181612224015281816123a20152818161246c015261254601526132f76000f3fe608060405234801561001057600080fd5b50600436106101415760003560e01c80635b1f8e0d116100b85780638da5cb5b1161007c5780638da5cb5b1461033a578063a1f73f9c14610358578063ba0af51014610388578063c81533a4146103a4578063d21220a7146103c2578063f9d5263f146103e057610141565b80635b1f8e0d146102be5780635d862828146102da57806361b723cf146102e4578063691eed5614610300578063791441291461031e57610141565b806314ca9c391161010a57806314ca9c39146101c4578063367e6e8a146101f45780633a1f52281461022457806343817180146102545780634526d37d1461025e5780634d3ed3d31461028e57610141565b80620f05731461014657806301afe5fa1461015057806305ea3ed51461016c578063073dbfc41461018a5780630dfe1681146101a6575b600080fd5b61014e6103fe565b005b61016a600480360381019061016591906128d9565b61064d565b005b610174610a42565b6040516101819190612915565b60405180910390f35b6101a4600480360381019061019f91906128d9565b610a48565b005b6101ae610efc565b6040516101bb91906129af565b60405180910390f35b6101de60048036038101906101d99190612a08565b610f20565b6040516101eb9190612915565b60405180910390f35b61020e60048036038101906102099190612a08565b610f38565b60405161021b9190612915565b60405180910390f35b61023e60048036038101906102399190612a08565b610f50565b60405161024b9190612915565b60405180910390f35b61025c610f68565b005b61027860048036038101906102739190612a08565b611115565b6040516102859190612915565b60405180910390f35b6102a860048036038101906102a391906128d9565b61112d565b6040516102b59190612a44565b60405180910390f35b6102d860048036038101906102d391906128d9565b61116c565b005b6102e2611596565b005b6102fe60048036038101906102f991906128d9565b611743565b005b610308611b6d565b6040516103159190612915565b60405180910390f35b610338600480360381019061033391906128d9565b611c0e565b005b610342612002565b60405161034f9190612a44565b60405180910390f35b610372600480360381019061036d91906128d9565b612026565b60405161037f9190612a44565b60405180910390f35b6103a2600480360381019061039d91906128d9565b612065565b005b6103ac612518565b6040516103b99190612915565b60405180910390f35b6103ca61251e565b6040516103d791906129af565b60405180910390f35b6103e8612542565b6040516103f59190612915565b60405180910390f35b7f000000000000000000000000000000000000000000000000000000000000000073ffffffffffffffffffffffffffffffffffffffff163373ffffffffffffffffffffffffffffffffffffffff161461048c576040517f08c379a000000000000000000000000000000000000000000000000000000000815260040161048390612abc565b60405180910390fd5b60005b60048054905081101561064a57600060026000600484815481106104b6576104b5612adc565b5b9060005260206000200160009054906101000a900473ffffffffffffffffffffffffffffffffffffffff1673ffffffffffffffffffffffffffffffffffffffff1673ffffffffffffffffffffffffffffffffffffffff16815260200190815260200160002054036106375760008190505b6004805490508110156105ee5760046001826105439190612b3a565b8154811061055457610553612adc565b5b9060005260206000200160009054906101000a900473ffffffffffffffffffffffffffffffffffffffff166004828154811061059357610592612adc565b5b9060005260206000200160006101000a81548173ffffffffffffffffffffffffffffffffffffffff021916908373ffffffffffffffffffffffffffffffffffffffff16021790555080806105e690612b90565b915050610527565b50600480548061060157610600612bd8565b5b6001900381819060005260206000200160006101000a81549073ffffffffffffffffffffffffffffffffffffffff021916905590555b808061064290612b90565b91505061048f565b50565b80600360003373ffffffffffffffffffffffffffffffffffffffff1673ffffffffffffffffffffffffffffffffffffffff1681526020019081526020016000205410156106cf576040517f08c379a00000000000000000000000000000000000000000000000000000000081526004016106c690612c53565b60405180910390fd5b60008111610712576040517f08c379a000000000000000000000000000000000000000000000000000000000815260040161070990612cbf565b60405180910390fd5b60007f000000000000000000000000000000000000000000000000000000000000000073ffffffffffffffffffffffffffffffffffffffff166370a08231306040518263ffffffff1660e01b815260040161076d9190612a44565b602060405180830381865afa15801561078a573d6000803e3d6000fd5b505050506040513d601f19601f820116820180604052508101906107ae9190612cf4565b90507f000000000000000000000000000000000000000000000000000000000000000073ffffffffffffffffffffffffffffffffffffffff1663a9059cbb33846040518363ffffffff1660e01b815260040161080b929190612d21565b6020604051808303816000875af115801561082a573d6000803e3d6000fd5b505050506040513d601f19601f8201168201806040525081019061084e9190612d82565b5081600160008282546108619190612daf565b9250508190555081600360003373ffffffffffffffffffffffffffffffffffffffff1673ffffffffffffffffffffffffffffffffffffffff16815260200190815260200160002060008282546108b79190612daf565b9250508190555081816108ca9190612daf565b7f000000000000000000000000000000000000000000000000000000000000000073ffffffffffffffffffffffffffffffffffffffff166370a08231306040518263ffffffff1660e01b81526004016109239190612a44565b602060405180830381865afa158015610940573d6000803e3d6000fd5b505050506040513d601f19601f820116820180604052508101906109649190612cf4565b1461097257610971612de3565b5b7fb659d979a9eebbdf7d424dfa6aabda43bdedf0134d00557d804f960517b08572827f000000000000000000000000000000000000000000000000000000000000000073ffffffffffffffffffffffffffffffffffffffff166306fdde036040518163ffffffff1660e01b8152600401600060405180830381865afa1580156109ff573d6000803e3d6000fd5b505050506040513d6000823e3d601f19601f82011682018060405250810190610a289190612f7c565b604051610a36929190613009565b60405180910390a15050565b60015481565b807f000000000000000000000000000000000000000000000000000000000000000073ffffffffffffffffffffffffffffffffffffffff166370a08231336040518263ffffffff1660e01b8152600401610aa29190612a44565b602060405180830381865afa158015610abf573d6000803e3d6000fd5b505050506040513d601f19601f82011682018060405250810190610ae39190612cf4565b1015610b24576040517f08c379a0000000000000000000000000000000000000000000000000000000008152600401610b1b90613085565b60405180910390fd5b60008111610b67576040517f08c379a0000000000000000000000000000000000000000000000000000000008152600401610b5e906130f1565b60405180910390fd5b60007f000000000000000000000000000000000000000000000000000000000000000073ffffffffffffffffffffffffffffffffffffffff166370a08231306040518263ffffffff1660e01b8152600401610bc29190612a44565b602060405180830381865afa158015610bdf573d6000803e3d6000fd5b505050506040513d601f19601f82011682018060405250810190610c039190612cf4565b90507f000000000000000000000000000000000000000000000000000000000000000073ffffffffffffffffffffffffffffffffffffffff166323b872dd3330856040518463ffffffff1660e01b8152600401610c6293929190613111565b6020604051808303816000875af1158015610c81573d6000803e3d6000fd5b505050506040513d601f19601f82011682018060405250810190610ca59190612d82565b508160016000828254610cb89190612b3a565b9250508190555081600360003373ffffffffffffffffffffffffffffffffffffffff1673ffffffffffffffffffffffffffffffffffffffff1681526020019081526020016000206000828254610d0e9190612b3a565b925050819055506005339080600181540180825580915050600190039060005260206000200160009091909190916101000a81548173ffffffffffffffffffffffffffffffffffffffff021916908373ffffffffffffffffffffffffffffffffffffffff1602179055508181610d849190612b3a565b7f000000000000000000000000000000000000000000000000000000000000000073ffffffffffffffffffffffffffffffffffffffff166370a08231306040518263ffffffff1660e01b8152600401610ddd9190612a44565b602060405180830381865afa158015610dfa573d6000803e3d6000fd5b505050506040513d601f19601f82011682018060405250810190610e1e9190612cf4565b14610e2c57610e2b612de3565b5b7f2a89a9867ba3f0bd8d280793be9bc1d599e2063cf3e4dd8e7a321d907047982c827f000000000000000000000000000000000000000000000000000000000000000073ffffffffffffffffffffffffffffffffffffffff166306fdde036040518163ffffffff1660e01b8152600401600060405180830381865afa158015610eb9573d6000803e3d6000fd5b505050506040513d6000823e3d601f19601f82011682018060405250810190610ee29190612f7c565b604051610ef0929190613009565b60405180910390a15050565b7f000000000000000000000000000000000000000000000000000000000000000081565b60066020528060005260406000206000915090505481565b60026020528060005260406000206000915090505481565b60036020528060005260406000206000915090505481565b6000600760003373ffffffffffffffffffffffffffffffffffffffff1673ffffffffffffffffffffffffffffffffffffffff1681526020019081526020016000205411610fea576040517f08c379a0000000000000000000000000000000000000000000000000000000008152600401610fe190613194565b60405180910390fd5b6000600760003373ffffffffffffffffffffffffffffffffffffffff1673ffffffffffffffffffffffffffffffffffffffff1681526020019081526020016000205490506000600760003373ffffffffffffffffffffffffffffffffffffffff1673ffffffffffffffffffffffffffffffffffffffff168152602001908152602001600020819055507f000000000000000000000000000000000000000000000000000000000000000073ffffffffffffffffffffffffffffffffffffffff1663a9059cbb33836040518363ffffffff1660e01b81526004016110ce929190612d21565b6020604051808303816000875af11580156110ed573d6000803e3d6000fd5b505050506040513d601f19601f820116820180604052508101906111119190612d82565b5050565b60076020528060005260406000206000915090505481565b6004818154811061113d57600080fd5b906000526020600020016000915054906101000a900473ffffffffffffffffffffffffffffffffffffffff1681565b807f000000000000000000000000000000000000000000000000000000000000000073ffffffffffffffffffffffffffffffffffffffff166370a08231336040518263ffffffff1660e01b81526004016111c69190612a44565b602060405180830381865afa1580156111e3573d6000803e3d6000fd5b505050506040513d601f19601f820116820180604052508101906112079190612cf4565b1015611248576040517f08c379a000000000000000000000000000000000000000000000000000000000815260040161123f90613085565b60405180910390fd5b6000811161128b576040517f08c379a0000000000000000000000000000000000000000000000000000000008152600401611282906130f1565b60405180910390fd5b60006103e86103e68361129e91906131b4565b6112a8919061323d565b9050600081836112b89190612daf565b90506000826001546112ca9190612b3a565b836000546112d891906131b4565b6112e2919061323d565b90507f000000000000000000000000000000000000000000000000000000000000000073ffffffffffffffffffffffffffffffffffffffff166323b872dd3330876040518463ffffffff1660e01b815260040161134193929190613111565b6020604051808303816000875af1158015611360573d6000803e3d6000fd5b505050506040513d601f19601f820116820180604052508101906113849190612d82565b507f000000000000000000000000000000000000000000000000000000000000000073ffffffffffffffffffffffffffffffffffffffff1663a9059cbb33836040518363ffffffff1660e01b81526004016113e0929190612d21565b6020604051808303816000875af11580156113ff573d6000803e3d6000fd5b505050506040513d601f19601f820116820180604052508101906114239190612d82565b5061142d826125e3565b7fc92e7e3e70b6a315e0fe9b16a23e8b359512423950d2748333641a9d5dcfa09584827f000000000000000000000000000000000000000000000000000000000000000073ffffffffffffffffffffffffffffffffffffffff166306fdde036040518163ffffffff1660e01b8152600401600060405180830381865afa1580156114bb573d6000803e3d6000fd5b505050506040513d6000823e3d601f19601f820116820180604052508101906114e49190612f7c565b7f000000000000000000000000000000000000000000000000000000000000000073ffffffffffffffffffffffffffffffffffffffff166306fdde036040518163ffffffff1660e01b8152600401600060405180830381865afa15801561154f573d6000803e3d6000fd5b505050506040513d6000823e3d601f19601f820116820180604052508101906115789190612f7c565b604051611588949392919061326e565b60405180910390a150505050565b6000600660003373ffffffffffffffffffffffffffffffffffffffff1673ffffffffffffffffffffffffffffffffffffffff1681526020019081526020016000205411611618576040517f08c379a000000000000000000000000000000000000000000000000000000000815260040161160f90613194565b60405180910390fd5b6000600660003373ffffffffffffffffffffffffffffffffffffffff1673ffffffffffffffffffffffffffffffffffffffff1681526020019081526020016000205490506000600660003373ffffffffffffffffffffffffffffffffffffffff1673ffffffffffffffffffffffffffffffffffffffff168152602001908152602001600020819055507f000000000000000000000000000000000000000000000000000000000000000073ffffffffffffffffffffffffffffffffffffffff1663a9059cbb33836040518363ffffffff1660e01b81526004016116fc929190612d21565b6020604051808303816000875af115801561171b573d6000803e3d6000fd5b505050506040513d601f19601f8201168201806040525081019061173f9190612d82565b5050565b807f000000000000000000000000000000000000000000000000000000000000000073ffffffffffffffffffffffffffffffffffffffff166370a08231336040518263ffffffff1660e01b815260040161179d9190612a44565b602060405180830381865afa1580156117ba573d6000803e3d6000fd5b505050506040513d601f19601f820116820180604052508101906117de9190612cf4565b101561181f576040517f08c379a000000000000000000000000000000000000000000000000000000000815260040161181690613085565b60405180910390fd5b60008111611862576040517f08c379a0000000000000000000000000000000000000000000000000000000008152600401611859906130f1565b60405180910390fd5b60006103e86103e68361187591906131b4565b61187f919061323d565b90506000818361188f9190612daf565b90506000826000546118a19190612b3a565b836001546118af91906131b4565b6118b9919061323d565b90507f000000000000000000000000000000000000000000000000000000000000000073ffffffffffffffffffffffffffffffffffffffff166323b872dd3330876040518463ffffffff1660e01b815260040161191893929190613111565b6020604051808303816000875af1158015611937573d6000803e3d6000fd5b505050506040513d601f19601f8201168201806040525081019061195b9190612d82565b507f000000000000000000000000000000000000000000000000000000000000000073ffffffffffffffffffffffffffffffffffffffff1663a9059cbb33836040518363ffffffff1660e01b81526004016119b7929190612d21565b6020604051808303816000875af11580156119d6573d6000803e3d6000fd5b505050506040513d601f19601f820116820180604052508101906119fa9190612d82565b50611a0482612739565b7fc92e7e3e70b6a315e0fe9b16a23e8b359512423950d2748333641a9d5dcfa09584827f000000000000000000000000000000000000000000000000000000000000000073ffffffffffffffffffffffffffffffffffffffff166306fdde036040518163ffffffff1660e01b8152600401600060405180830381865afa158015611a92573d6000803e3d6000fd5b505050506040513d6000823e3d601f19601f82011682018060405250810190611abb9190612f7c565b7f000000000000000000000000000000000000000000000000000000000000000073ffffffffffffffffffffffffffffffffffffffff166306fdde036040518163ffffffff1660e01b8152600401600060405180830381865afa158015611b26573d6000803e3d6000fd5b505050506040513d6000823e3d601f19601f82011682018060405250810190611b4f9190612f7c565b604051611b5f949392919061326e565b60405180910390a150505050565b60007f000000000000000000000000000000000000000000000000000000000000000073ffffffffffffffffffffffffffffffffffffffff166370a08231306040518263ffffffff1660e01b8152600401611bc89190612a44565b602060405180830381865afa158015611be5573d6000803e3d6000fd5b505050506040513d601f19601f82011682018060405250810190611c099190612cf4565b905090565b80600260003373ffffffffffffffffffffffffffffffffffffffff1673ffffffffffffffffffffffffffffffffffffffff168152602001908152602001600020541015611c90576040517f08c379a0000000000000000000000000000000000000000000000000000000008152600401611c8790612c53565b60405180910390fd5b60008111611cd3576040517f08c379a0000000000000000000000000000000000000000000000000000000008152600401611cca90612cbf565b60405180910390fd5b60007f000000000000000000000000000000000000000000000000000000000000000073ffffffffffffffffffffffffffffffffffffffff166370a08231306040518263ffffffff1660e01b8152600401611d2e9190612a44565b602060405180830381865afa158015611d4b573d6000803e3d6000fd5b505050506040513d601f19601f82011682018060405250810190611d6f9190612cf4565b90507f000000000000000000000000000000000000000000000000000000000000000073ffffffffffffffffffffffffffffffffffffffff1663a9059cbb33846040518363ffffffff1660e01b8152600401611dcc929190612d21565b6020604051808303816000875af1158015611deb573d6000803e3d6000fd5b505050506040513d601f19601f82011682018060405250810190611e0f9190612d82565b5081600080828254611e219190612daf565b9250508190555081600260003373ffffffffffffffffffffffffffffffffffffffff1673ffffffffffffffffffffffffffffffffffffffff1681526020019081526020016000206000828254611e779190612daf565b925050819055508181611e8a9190612daf565b7f000000000000000000000000000000000000000000000000000000000000000073ffffffffffffffffffffffffffffffffffffffff166370a08231306040518263ffffffff1660e01b8152600401611ee39190612a44565b602060405180830381865afa158015611f00573d6000803e3d6000fd5b505050506040513d601f19601f82011682018060405250810190611f249190612cf4565b14611f3257611f31612de3565b5b7fb659d979a9eebbdf7d424dfa6aabda43bdedf0134d00557d804f960517b08572827f000000000000000000000000000000000000000000000000000000000000000073ffffffffffffffffffffffffffffffffffffffff166306fdde036040518163ffffffff1660e01b8152600401600060405180830381865afa158015611fbf573d6000803e3d6000fd5b505050506040513d6000823e3d601f19601f82011682018060405250810190611fe89190612f7c565b604051611ff6929190613009565b60405180910390a15050565b7f000000000000000000000000000000000000000000000000000000000000000081565b6005818154811061203657600080fd5b906000526020600020016000915054906101000a900473ffffffffffffffffffffffffffffffffffffffff1681565b807f000000000000000000000000000000000000000000000000000000000000000073ffffffffffffffffffffffffffffffffffffffff166370a08231336040518263ffffffff1660e01b81526004016120bf9190612a44565b602060405180830381865afa1580156120dc573d6000803e3d6000fd5b505050506040513d601f19601f820116820180604052508101906121009190612cf4565b1015612141576040517f08c379a000000000000000000000000000000000000000000000000000000000815260040161213890613085565b60405180910390fd5b60008111612184576040517f08c379a000000000000000000000000000000000000000000000000000000000815260040161217b906130f1565b60405180910390fd5b60007f000000000000000000000000000000000000000000000000000000000000000073ffffffffffffffffffffffffffffffffffffffff166370a08231306040518263ffffffff1660e01b81526004016121df9190612a44565b602060405180830381865afa1580156121fc573d6000803e3d6000fd5b505050506040513d601f19601f820116820180604052508101906122209190612cf4565b90507f000000000000000000000000000000000000000000000000000000000000000073ffffffffffffffffffffffffffffffffffffffff166323b872dd3330856040518463ffffffff1660e01b815260040161227f93929190613111565b6020604051808303816000875af115801561229e573d6000803e3d6000fd5b505050506040513d601f19601f820116820180604052508101906122c29190612d82565b50816000808282546122d49190612b3a565b9250508190555081600260003373ffffffffffffffffffffffffffffffffffffffff1673ffffffffffffffffffffffffffffffffffffffff168152602001908152602001600020600082825461232a9190612b3a565b925050819055506004339080600181540180825580915050600190039060005260206000200160009091909190916101000a81548173ffffffffffffffffffffffffffffffffffffffff021916908373ffffffffffffffffffffffffffffffffffffffff16021790555081816123a09190612b3a565b7f000000000000000000000000000000000000000000000000000000000000000073ffffffffffffffffffffffffffffffffffffffff166370a08231306040518263ffffffff1660e01b81526004016123f99190612a44565b602060405180830381865afa158015612416573d6000803e3d6000fd5b505050506040513d601f19601f8201168201806040525081019061243a9190612cf4565b1461244857612447612de3565b5b7f2a89a9867ba3f0bd8d280793be9bc1d599e2063cf3e4dd8e7a321d907047982c827f000000000000000000000000000000000000000000000000000000000000000073ffffffffffffffffffffffffffffffffffffffff166306fdde036040518163ffffffff1660e01b8152600401600060405180830381865afa1580156124d5573d6000803e3d6000fd5b505050506040513d6000823e3d601f19601f820116820180604052508101906124fe9190612f7c565b60405161250c929190613009565b60405180910390a15050565b60005481565b7f000000000000000000000000000000000000000000000000000000000000000081565b60007f000000000000000000000000000000000000000000000000000000000000000073ffffffffffffffffffffffffffffffffffffffff166370a08231306040518263ffffffff1660e01b815260040161259d9190612a44565b602060405180830381865afa1580156125ba573d6000803e3d6000fd5b505050506040513d601f19601f820116820180604052508101906125de9190612cf4565b905090565b60005b60048054905081101561273557600082600154600360006005868154811061261157612610612adc565b5b9060005260206000200160009054906101000a900473ffffffffffffffffffffffffffffffffffffffff1673ffffffffffffffffffffffffffffffffffffffff1673ffffffffffffffffffffffffffffffffffffffff16815260200190815260200160002054612681919061323d565b61268b91906131b4565b90508060076000600585815481106126a6576126a5612adc565b5b9060005260206000200160009054906101000a900473ffffffffffffffffffffffffffffffffffffffff1673ffffffffffffffffffffffffffffffffffffffff1673ffffffffffffffffffffffffffffffffffffffff168152602001908152602001600020600082825461271a9190612b3a565b9250508190555050808061272d90612b90565b9150506125e6565b5050565b60005b60048054905081101561288b57600082600054600260006004868154811061276757612766612adc565b5b9060005260206000200160009054906101000a900473ffffffffffffffffffffffffffffffffffffffff1673ffffffffffffffffffffffffffffffffffffffff1673ffffffffffffffffffffffffffffffffffffffff168152602001908152602001600020546127d7919061323d565b6127e191906131b4565b90508060066000600485815481106127fc576127fb612adc565b5b9060005260206000200160009054906101000a900473ffffffffffffffffffffffffffffffffffffffff1673ffffffffffffffffffffffffffffffffffffffff1673ffffffffffffffffffffffffffffffffffffffff16815260200190815260200160002060008282546128709190612b3a565b9250508190555050808061288390612b90565b91505061273c565b5050565b6000604051905090565b600080fd5b600080fd5b6000819050919050565b6128b6816128a3565b81146128c157600080fd5b50565b6000813590506128d3816128ad565b92915050565b6000602082840312156128ef576128ee612899565b5b60006128fd848285016128c4565b91505092915050565b61290f816128a3565b82525050565b600060208201905061292a6000830184612906565b92915050565b600073ffffffffffffffffffffffffffffffffffffffff82169050919050565b6000819050919050565b600061297561297061296b84612930565b612950565b612930565b9050919050565b60006129878261295a565b9050919050565b60006129998261297c565b9050919050565b6129a98161298e565b82525050565b60006020820190506129c460008301846129a0565b92915050565b60006129d582612930565b9050919050565b6129e5816129ca565b81146129f057600080fd5b50565b600081359050612a02816129dc565b92915050565b600060208284031215612a1e57612a1d612899565b5b6000612a2c848285016129f3565b91505092915050565b612a3e816129ca565b82525050565b6000602082019050612a596000830184612a35565b92915050565b600082825260208201905092915050565b7f6f6e6c79206f776e657200000000000000000000000000000000000000000000600082015250565b6000612aa6600a83612a5f565b9150612ab182612a70565b602082019050919050565b60006020820190508181036000830152612ad581612a99565b9050919050565b7f4e487b7100000000000000000000000000000000000000000000000000000000600052603260045260246000fd5b7f4e487b7100000000000000000000000000000000000000000000000000000000600052601160045260246000fd5b6000612b45826128a3565b9150612b50836128a3565b9250827fffffffffffffffffffffffffffffffffffffffffffffffffffffffffffffffff03821115612b8557612b84612b0b565b5b828201905092915050565b6000612b9b826128a3565b91507fffffffffffffffffffffffffffffffffffffffffffffffffffffffffffffffff8203612bcd57612bcc612b0b565b5b600182019050919050565b7f4e487b7100000000000000000000000000000000000000000000000000000000600052603160045260246000fd5b7f4e6f7420656e61756768207374616b696e670000000000000000000000000000600082015250565b6000612c3d601283612a5f565b9150612c4882612c07565b602082019050919050565b60006020820190508181036000830152612c6c81612c30565b9050919050565b7f52656d6f7665206d6f7265207468616e20300000000000000000000000000000600082015250565b6000612ca9601283612a5f565b9150612cb482612c73565b602082019050919050565b60006020820190508181036000830152612cd881612c9c565b9050919050565b600081519050612cee816128ad565b92915050565b600060208284031215612d0a57612d09612899565b5b6000612d1884828501612cdf565b91505092915050565b6000604082019050612d366000830185612a35565b612d436020830184612906565b9392505050565b60008115159050919050565b612d5f81612d4a565b8114612d6a57600080fd5b50565b600081519050612d7c81612d56565b92915050565b600060208284031215612d9857612d97612899565b5b6000612da684828501612d6d565b91505092915050565b6000612dba826128a3565b9150612dc5836128a3565b925082821015612dd857612dd7612b0b565b5b828203905092915050565b7f4e487b7100000000000000000000000000000000000000000000000000000000600052600160045260246000fd5b600080fd5b600080fd5b6000601f19601f8301169050919050565b7f4e487b7100000000000000000000000000000000000000000000000000000000600052604160045260246000fd5b612e6582612e1c565b810181811067ffffffffffffffff82111715612e8457612e83612e2d565b5b80604052505050565b6000612e9761288f565b9050612ea38282612e5c565b919050565b600067ffffffffffffffff821115612ec357612ec2612e2d565b5b612ecc82612e1c565b9050602081019050919050565b60005b83811015612ef7578082015181840152602081019050612edc565b83811115612f06576000848401525b50505050565b6000612f1f612f1a84612ea8565b612e8d565b905082815260208101848484011115612f3b57612f3a612e17565b5b612f46848285612ed9565b509392505050565b600082601f830112612f6357612f62612e12565b5b8151612f73848260208601612f0c565b91505092915050565b600060208284031215612f9257612f91612899565b5b600082015167ffffffffffffffff811115612fb057612faf61289e565b5b612fbc84828501612f4e565b91505092915050565b600081519050919050565b6000612fdb82612fc5565b612fe58185612a5f565b9350612ff5818560208601612ed9565b612ffe81612e1c565b840191505092915050565b600060408201905061301e6000830185612906565b81810360208301526130308184612fd0565b90509392505050565b7f496e73756666696369656e742066756e64730000000000000000000000000000600082015250565b600061306f601283612a5f565b915061307a82613039565b602082019050919050565b6000602082019050818103600083015261309e81613062565b9050919050565b7f507574206d6f7265207468616e20300000000000000000000000000000000000600082015250565b60006130db600f83612a5f565b91506130e6826130a5565b602082019050919050565b6000602082019050818103600083015261310a816130ce565b9050919050565b60006060820190506131266000830186612a35565b6131336020830185612a35565b6131406040830184612906565b949350505050565b7f596f752068617665206e6f207072697a6520746f207769746864726177000000600082015250565b600061317e601d83612a5f565b915061318982613148565b602082019050919050565b600060208201905081810360008301526131ad81613171565b9050919050565b60006131bf826128a3565b91506131ca836128a3565b9250817fffffffffffffffffffffffffffffffffffffffffffffffffffffffffffffffff048311821515161561320357613202612b0b565b5b828202905092915050565b7f4e487b7100000000000000000000000000000000000000000000000000000000600052601260045260246000fd5b6000613248826128a3565b9150613253836128a3565b9250826132635761326261320e565b5b828204905092915050565b60006080820190506132836000830187612906565b6132906020830186612906565b81810360408301526132a28185612fd0565b905081810360608301526132b68184612fd0565b90509594505050505056fea2646970667358221220d4c2fc63ae8b4bdfaa5d7573c6d07a4c8eaedd02d187a03861dd3400cf02ff3264736f6c634300080d0033",
  "linkReferences": {},
  "deployedLinkReferences": {}
}